:020000040800F2
:1000000060040020450100086D1D00086F1D0008F8
:10001000731D0008771D00087B1D0008000000000C
:100020000000000000000000000000007F1D00082C
:10003000811D000800000000831D0008851D0008C8
:100040005F0100085F0100085F0100085F01000810
:100050005F0100085F0100085F0100085F01000800
:100060005F0100085F0100085F0100085F010008F0
:100070005F0100085F0100085F0100085F010008E0
:100080005F0100085F0100085F0100085F010008D0
:100090005F0100085F0100085F0100085F010008C0
:1000A0005F0100085F0100085F0100085F010008B0
:1000B0005F0100085F0100085F0100085F010008A0
:1000C0005F0100085F0100085F0100085F01000890
:1000D0005F0100085F0100085F0100085F01000880
:1000E0005F0100085F0100085F0100085F01000870
:1000F0005F0100085F0100085F0100085F01000860
:100100005F0100085F010008871D00085F0100080B
:100110005F0100085F010008931D00085F010008EF
:100120005F0100085F0100085F0100085F0100082F
:10013000DFF80CD004F078F800480047491D0008AB
:10014000600400200648804706480047FEE7FEE7B7
:10015000FEE7FEE7FEE7FEE7FEE7FEE7FEE7FEE777
:1001600047020008310100080CB500200190009002
:100170006C48006840F480306A49086000BF6948F4
:10018000006800F4003000900198401C0190009835
:1001900018B90198B0F5A06FF1D16248006800F479
:1001A000003010B10120009001E000200090009884
:1001B000012843D15C48006840F010005A490860AB
:1001C0000846006820F0030008600846006840F018
:1001D0000200086053484068524948600846406839
:1001E00048600846406840F48060486008464068BF
:1001F00020F47C1048600846406840F4E8104860ED
:100200000846006840F08070086000BF45480068FC
:1002100000F000700028F9D04248406820F0030048
:10022000404948600846406840F00200486000BF0E
:100230003C48406800F00C000828F9D10CBD10B50E
:10024000FFF792FF10BD10B53648006840F001007E
:1002500034490860084640683449084031494860DC
:1002600008460068324908402E4908600846006880
:1002700020F4802008600846406820F4FE004860B2
:100280004FF41F008860FFF7DAFF4FF00060294944
:10029000086010BD10B5002100200022214B5B68D2
:1002A00003F00C0121B1042906D0082928D107E068
:1002B000214B224C236027E01F4B204C236023E07E
:1002C000184B5B6803F47010164B5B6803F48032C4
:1002D000022303EB904022B9194B4343174C236090
:1002E0000DE0104B5B6803F4003323B1144B434320
:1002F000124C236003E0104B4343104C236003E097
:100300000D4B0E4C236000BF00BF064B5B68C3F370
:1003100003130C4CE15C094B1B68CB40074C23607A
:1003200010BD000000100240002002400000FFF855
:10033000FFFFF6FE08ED00E000127A00000000204A
:1003400000093D000400002031490143314A116099
:10035000704770B5002100230F22C47804B32D4CE0
:10036000246804F4E064C4F5E064210AC1F10403E4
:10037000CA40447804FA03F1847814402143090107
:10038000254C0678A155047804F01F050124AC40E3
:1003900005786D11AD0005F1E025C5F8004109E0D3
:1003A000047804F01F050124AC401C4D067876113A
:1003B00045F8264070BD1A4A0A400243154B1B1FE0
:1003C0001A60704739B1134A121D12680243114B6B
:1003D0001B1D1A6006E00F4A121D126882430D4B66
:1003E0001B1D1A607047042808D14FF0E0210969ED
:1003F00041F004014FF0E022116107E04FF0E021ED
:10040000096921F004014FF0E022116170470000FA
:100410000000FA050CED00E000E400E080E100E0FF
:1004200080FFFF1F10B50446CC48844208D101214B
:10043000042000F02DFB0021042000F029FB46E001
:10044000C748844208D10121082000F021FB002187
:10045000082000F01DFB3AE0C248844208D1012187
:10046000102000F015FB0021102000F011FB2EE001
:10047000BD48844208D10121202000F009FB002161
:10048000202000F005FB22E0B848844208D1012179
:10049000402000F0FDFA0021402000F0F9FA16E0BB
:1004A000B348844208D10121802000F0F1FA0021F4
:1004B000802000F0EDFA0AE0AE48844207D1012125
:1004C000801500F0E5FA0021A01500F0E1FA10BD5A
:1004D00010B50121084600F0DBFA0021012000F0F0
:1004E000D7FA10BD2DE9F041024600250026002074
:1004F00000230024002791F803C00CF00F0591F8A9
:1005000003C00CF0100CBCF1000F03D091F802C036
:100510004CEA050591F800C0BCF1000F31D0146819
:1005200000202BE04FF0010C0CFA00F3B1F800C0F2
:100530000CEA03069E4220D183004FF00F0C0CFA08
:1005400003F7BC4305FA03FC4CEA040491F803C02A
:10055000BCF1280F06D14FF0010C0CFA00FCC2F8D8
:1005600014C00AE091F803C0BCF1480F05D14FF068
:10057000010C0CFA00FCC2F810C0401C0828D1D3B2
:100580001460B1F800C0BCF1FF0F34DD54680020E6
:100590002EE000F1080C4FF0010808FA0CF3B1F856
:1005A00000C00CEA03069E4221D183004FF00F0CDD
:1005B0000CFA03F7BC4305FA03FC4CEA040491F877
:1005C00003C0BCF1280F05D100F1080C08FA0CF8A3
:1005D000C2F8148091F803C0BCF1480F07D100F1B4
:1005E000080C4FF0010808FA0CF8C2F81080401C03
:1005F0000828CED35460BDE8F0814FF6FF7101802A
:10060000022181700421C170704702460020936866
:100610000B400BB1012000E00020704701468868C4
:1006200080B2704702460020D3680B400BB1012016
:1006300000E0002070470146C86880B27047016141
:100640007047416170470AB1016100E04161704744
:10065000C16070474FF480320A43826181618261D8
:1006600082698269704702460020434B18684FF642
:100670008073184040EA021008433F4B18607047EF
:100680003E49C8617047F0B50A46002300240021A6
:10069000002500F00046B6F1004F02D1364EF16958
:1006A00001E0354E7168C0F3034583B200F4401693
:1006B000B6F5401F08D121F070612F4E766826F004
:1006C00070662D4F7E6012E000F48016B6F5801F34
:1006D00006D1032606FA05F4A14341F0706106E055
:1006E000460D360103FA06F6B14341F0706122B1BE
:1006F000460D360103FA06F6314300F00046B6F126
:10070000004F02D11C4EF16101E01B4E7160F0BD43
:1007100030B500228B071C0F0F2303FA04F2164B8F
:1007200008338C1053F824309343134C08348D1045
:1007300044F8253023468C1053F824308C07240FBE
:1007400000FA04F423430C4C08348D1044F825308F
:1007500030BD0A49DC3108607047000000080140E4
:10076000000C01400010014000140140001801403D
:10077000001C014000200140000001400000204218
:10078000DF48006840F00100DD4908600846406825
:10079000DC490840DA49486008460068DA49084000
:1007A000D74908600846006820F4802008600846A1
:1007B000406820F4FE0048604FF41F0088607047D6
:1007C000CF49096821F48031CD4A1160114609688A
:1007D00021F480211160B0F5803F03D0B0F5802F67
:1007E0000ED106E0C649096841F48031C44A11605F
:1007F00007E0C349096841F4A021C14A116000E043
:1008000000BF00BF704710B5014600220023002042
:100810004A11012A02D1BA4C236806E0022A02D109
:10082000B74C236A01E0B64C636A01F01F02012451
:1008300094401C400CB1012000E0002010BD38B5F0
:10084000002000900024002500BF3120FFF7DBFFCF
:1008500005460098401C00900098B0F5A06F01D0AC
:10086000002DF2D03120FFF7CEFF08B1012400E0C7
:100870000024204638BD01460020A14A106820F01F
:10088000F80040EAC10010607047A0490860704756
:10089000024600209A4B586820F47C1042EA01037B
:1008A0001843974B5860704798490866704701464F
:1008B0000020934A506820F00300084350607047BE
:1008C0008F48406800F00C007047014600208C4AB9
:1008D000506820F0F0000843506070470146002047
:1008E000874A506820F4E060084350607047014632
:1008F0000020834A506820F4605040EAC1005060F4
:10090000704729B17E4A527A02437D4B5A7204E005
:100910007B4A527A82437A4B5A7270477B49D8316C
:100920000860704701460020754A506820F4404036
:100930000843506070470021714A20321170704A9C
:1009400082F82010012802D004280AD104E00121F5
:100950006B4A2032117005E00521694A203211707E
:1009600000E000BF00BF70476949086070476449F4
:10097000096A0143624A1162704765494439086057
:10098000704730B500210022002400235C4D6D68C3
:1009900005F00C0121B1042905D0082923D105E077
:1009A0005C4D056022E05B4D05601FE0544D6D68B5
:1009B00005F47012524D6D6805F48034022505EB84
:1009C00092421CB9544D554305600BE04C4D6D6887
:1009D00005F400351DB1504D5543056002E04D4D05
:1009E0005543056002E04B4D056000BF00BF444D1C
:1009F0006D6805F0F0010909484D6B5C0568DD4044
:100A000045603F4D6D6805F4E061090A434D6B5C3C
:100A10004568DD4085603A4D6D6805F46051C90A4E
:100A20003E4D6B5C4568DD40C560354D6D6805F435
:100A30004041890B3A4D6B5CC568B5FBF3F5056128
:100A400030BD29B12E4A526902432D4B5A6104E050
:100A50002B4A526982432A4B5A61704729B1284A6E
:100A600092690243264B9A6104E0254A92698243C7
:100A7000234B9A61704729B1214AD2690243204B26
:100A8000DA6104E01E4AD26982431D4BDA61704785
:100A900029B11B4AD2680243194BDA6004E0184AB4
:100AA000D2688243164BDA60704729B1144A126942
:100AB0000243134B1A6104E0114A12698243104B3E
:100AC0001A61704712494039086070470F49C8647D
:100AD00070470B49C87170470948406A40F0807000
:100AE00007494862704701460020054A92680A405B
:100AF0000AB1012000E00020704701498872704768
:100B0000001002400000FFF8FFFFF6FE0000424226
:100B10008004424200127A0000093D0014000020C7
:100B20002400002010B50446FE48844208D101216B
:100B3000C014FFF7ADFF0021E014FFF7A9FFC4E0E8
:100B4000B4F1804F08D101210846FFF7AEFF002124
:100B50000120FFF7AAFFB8E0F348844208D1012141
:100B60000220FFF7A2FF00210220FFF79EFFACE06A
:100B7000EE48844208D101210420FFF796FF0021AE
:100B80000420FFF792FFA0E0E948844208D1012148
:100B90000820FFF78AFF00210820FFF786FF94E076
:100BA000E448844208D101211020FFF77EFF002194
:100BB0001020FFF77AFF88E0DF48844208D1012146
:100BC0002020FFF772FF00212020FFF76EFF7CE05E
:100BD000DA48844208D101214014FFF759FF00216F
:100BE0006014FFF755FF70E0D548844209D1012118
:100BF000C804FFF74DFF00214FF40020FFF748FF26
:100C000063E0D048844209D101210805FFF740FF85
:100C100000214FF48010FFF73BFF56E0CA488442A2
:100C200009D101214805FFF733FF00214FF40010DF
:100C3000FFF72EFF49E0C548844208D1012140203A
:100C4000FFF733FF00214020FFF72FFF3DE0C048B2
:100C5000844208D101218020FFF727FF0021802056
:100C6000FFF723FF31E0BB48844208D10121801502
:100C7000FFF71BFF0021A015FFF717FF25E0B6487F
:100C8000844209D101210804FFF702FF00214FF43B
:100C90008030FFF7FDFE18E0B048844209D1012101
:100CA0004804FFF7F5FE00214FF40030FFF7F0FE97
:100CB0000BE0AB48844208D101218804FFF7E8FE2D
:100CC00000214FF48020FFF7E3FE10BD00220288D0
:100CD000944B98420ED0994B98420BD0B0F1804F74
:100CE00008D0914B984205D0904B984202D0904B3F
:100CF000984204D14FF68F731A404B881A438D4B9C
:100D0000984207D08C4B984204D04FF6FF431A40CC
:100D1000CB881A4302808B8883850B880385814B9F
:100D200098420BD0854B984208D08B4B984205D007
:100D30008A4B984202D08A4B984201D10B7A0386A3
:100D400001238382704770B5002400220023058CA4
:100D50004FF6FE7635400584028C8388048B4FF66F
:100D60008F752C40B51E2C400D882C43751E2A40D3
:100D70000D892A434D882A436A4DA8420BD06F4DF6
:100D8000A84208D0744DA84205D0744DA84202D0A4
:100D9000734DA84213D14FF6F7752A404D892A4367
:100DA0004FF6FB752A408D882A434FF6FF652B408E
:100DB0004FF6FF552B408D892B43CD892B438380E4
:100DC0000483CD888586028470BD70B5002400221E
:100DD0000023058C4FF6EF7635400584028C83881E
:100DE000048B48F6FF752C404FF6FF452C400D88CC
:100DF0004FF6FF7606EA05252C434FF6DF752A40AD
:100E00000D8906EA05152A434D8806EA05152A4389
:100E1000444DA84202D0494DA8421DD14FF67F75DE
:100E20002A404D894FF6FF7606EA05152A434FF60C
:100E3000BF752A408D8806EA05152A434FF6FF350F
:100E40002B404FF2FF752B408D8906EA85052B4319
:100E5000CD8906EA85052B4383800483CD880587E9
:100E6000028470BD70B5002400220023058C4FF66B
:100E7000FF6635400584028C8388848B4FF68F751E
:100E80002C404FF6FC752C400D882C434FF6FF5537
:100E90002A400D894FF6FF7606EA05252A434D883C
:100EA00006EA05252A431F4DA84202D0234DA84239
:100EB0001DD14FF2FF752A404D894FF6FF7606EAA5
:100EC00005252A434FF6FF352A408D8806EA052579
:100ED0002A434EF6FF752B404DF6FF752B408D894A
:100EE00006EA05152B43CD8906EA05152B438380B9
:100EF0008483CD888587028470BD70B5002200236D
:100F00000024058C4EF6FF7635400584038C8488DA
:100F1000828B48F6FF752A404FF6FF452A400D8820
:100F200020E00000002C01400004004000080040C8
:100F3000000C00400010004000140040003401404C
:100F4000004C014000500140005401400018004096
:100F5000001C0040002000400040014000440140CF
:100F6000004801404FF6FF7606EA05252A434DF674
:100F7000FF752B400D8906EA05352B434D8806EA9F
:100F800005352B43FA4DA84202D0FA4DA84208D1AC
:100F90004BF6FF752C408D894FF6FF7606EA8515D6
:100FA0002C4384808283CD88A0F84050038470BD98
:100FB000828B4FF2FF331A408283828B4FF6FF738E
:100FC00003EA01231A4382837047F0B50C461546A5
:100FD000002200210026078C4EF6FF7C07EA0C0752
:100FE0000784828B018C4FF6FF7707EA043640F6C0
:100FF000FF473A404FF6FF7707EA05273A434FF697
:10100000FF7707EA03373A43D94FB8420ED0D94F9A
:10101000B8420BD0B0F1804F08D0D74FB84205D0BE
:10102000D64FB84202D0D64FB84206D14DF6FF7720
:10103000394046F48057394305E047F6FF573940B9
:1010400044F48057394382830184F0BD828B4FF68C
:10105000F3731A408283828B0A4382837047F0B510
:101060000C461546002200210026078C4FF6FF6C27
:1010700007EA0C070784828B018C4FF6FF7707EA9B
:1010800004264FF60C773A404FF6FF7707EA03172E
:101090002F433A43B64FB8420ED0B64FB8420BD0AA
:1010A000B0F1804F08D0B44FB84205D0B34FB8422A
:1010B00002D0B34FB84206D14FF6FF57394046F43D
:1010C0008077394305E04FF2FF57394044F4807789
:1010D000394382830184F0BD028B4FF2FF331A4003
:1010E0000283028B4FF6FF7303EA01231A43028344
:1010F0007047F0B50C461546002200210026078CEB
:101100004FF6EF7C07EA0C070784028B018C4FF641
:10111000FF7707EA041640F6FF473A404FF6FF779D
:1011200007EA03373A434FF6FF7707EA05273A43C2
:101130008F4FB8420ED08F4FB8420BD0B0F1804FD6
:1011400008D08D4FB84205D08C4FB84202D08C4F9A
:10115000B84206D14FF6DF77394046F010073943E1
:1011600005E04FF65F77394044F0100739430283BA
:101170000184F0BD028B4FF6F3731A400283028B99
:101180000A4302837047F0B50C4615460022002141
:10119000068C4FF6FE773E400684028B018C4FF69C
:1011A0000C7632407E1C06EA03162E433243704E04
:1011B000B0420ED06F4EB0420BD0B0F1804F08D08D
:1011C0006D4EB04205D06D4EB04202D06C4EB04272
:1011D00006D14FF6FD76314044F00106314305E07B
:1011E0004FF6F576314044F0010631430283018425
:1011F000F0BD70B505460C465D4885420ED05D4891
:1012000085420BD0B5F1804F08D05B48854205D0B0
:101210005A48854202D05A48854200D100E000BFBA
:10122000208850B92389A28861882846FFF7ABFF40
:10123000E1882846FFF79EFF25E0208804280AD190
:101240002389A28861882846FFF753FFE188284652
:10125000FFF742FF17E0208808280AD12389A288D7
:1012600061882846FFF7FBFEE1882846FFF7EEFE7F
:1012700009E02389A28861882846FFF7A6FEE18855
:101280002846FFF795FE70BD2DE9F04105460C4656
:1012900000260127608808B9022600E00026A08801
:1012A000012801D1022700E001272088A0B9238965
:1012B000A28861882846FFF766FFE1882846FFF785
:1012C00059FF23893A4631462846FFF712FFE18845
:1012D0002846FFF701FF13E02389A288618828468A
:1012E000FFF707FFE1882846FFF7F6FE23893A4615
:1012F00031462846FFF747FFE1882846FFF73AFFC7
:10130000BDE8F0810A884B881A438B881A43CB8842
:101310001A430B891A434B891A438B891A43A0F845
:10132000442070474FF6FF71818000210180C18009
:101330004180017270470021018041808180C1801D
:10134000018141818181C1817047002101804180FB
:10135000012181800021C18001817047002101802D
:1013600041808180C180018141818181704700007D
:10137000002C0140003401400004004000080040FF
:10138000000C004021B1028842F00102028004E01A
:1013900002884FF6FE731A400280704731B1B0F8F0
:1013A000442042F40042A0F8442005E0B0F8442074
:1013B000C2F30E02A0F8442070471AB183890B4390
:1013C000838102E083898B438381704781827047E8
:1013D00041EA0203A0F8483070471AB183890B43F1
:1013E000838102E083898B438381704701894FF6B3
:1013F000F8721140018170470A46002101894FF6B9
:101400008F73194011430181704730B504460D4672
:1014100029462046FFF7F0FF208940F00700208191
:1014200030BD2DE9F04104460D4616461F46602D9D
:1014300006D13B46012231462046FFF75AFE05E021
:101440003B46012231462046FFF79DFE29462046B5
:10145000FFF7D2FF208940F007002081BDE8F0812E
:1014600030B50C4600210189C9B24FF6FF7505EA77
:101470000325154325432943018130BD2DE9F04162
:1014800005460E4617469846002443463A463146DE
:101490002846FFF7E5FF2C894FF6F870044044F02A
:1014A00007044FF68F70044044F070042C81BDE8AF
:1014B000F081F0B504460D4616461F463B463246BF
:1014C00029462046FFF7CCFF208940F48040208148
:1014D000F0BD0185828270470A46002101884FF6DF
:1014E0008F731940114301807047F0B50C461546C3
:1014F0001E460021002200230189028B038C4FF637
:10150000F877394021434FF6FC473A4040F2011743
:101510003A434FF6DD773B404FF6FF7707EA061771
:101520002F433B43018102830384F0BD0A4600211F
:10153000018B4FF68F7319401143018370470A46A0
:101540000021018B48F6FF7319404FF6FF7303EA41
:1015500002231943018370470A460021818B4FF60D
:101560008F7319401143818370470A460021818B94
:1015700048F6FF7319404FF6FF7303EA022319433D
:101580008183704721B1028842F08002028004E02A
:1015900002884FF67F731A400280704721B182881B
:1015A00042F00402828004E082884FF6FB731A4006
:1015B0008280704721B1828842F00802828004E074
:1015C00082884FF6F7731A408280704721B1828873
:1015D00042F00102828004E082884FF6FE731A40D6
:1015E000828070470A460021018B4FF6F77319403D
:1015F0001143018370470A460021018B4FF2FF73AC
:1016000019404FF6FF7303EA022319430183704721
:101610000A460021818B4FF6F773194011438183ED
:1016200070470A460021818B4FF2FF7319404FF635
:10163000FF7303EA02231943818370470A4600219E
:10164000018B4FF6FB7319401143018370470A4623
:101650000021018B4FF6FF3319404FF6FF7303EA69
:1016600002231943018370470A460021818B4FF6FC
:10167000FB7319401143818370470A460021818B17
:101680004FF6FF3319404FF6FF7303EA0223194365
:10169000818370470A460021018B4FF67F73194002
:1016A0001143018370470A460021018BC1F30E01EB
:1016B0004FF6FF7303EA02231943018370470A467A
:1016C0000021818B4FF67F7319401143818370474E
:1016D0000A460021818BC1F30E014FF6FF7303EA26
:1016E00002231943818370470A460021018C4FF67B
:1016F000FD7319401143018470470A460021018C93
:101700004FF6F77319401143018470470A460021D0
:10171000018C4FF6DF7319404FF6FF7303EA021393
:101720001943018470470A460021018C4FF67F73EC
:1017300019404FF6FF7303EA0213194301847047FF
:101740000A460021018C4FF6FF5319404FF6FF73F4
:1017500003EA02231943018470470A460021018CE1
:101760004FF2FF7319404FF6FF7303EA0223194348
:10177000018470470A460021018C4DF6FF73194021
:101780004FF6FF7303EA023319430184704730B503
:10179000002301248C40A3B2048C9C430484048C59
:1017A00002FA01F5ADB22C43048430BD30B50023FC
:1017B00004248C40A3B2048C9C430484048C02FA5D
:1017C00001F5ADB22C43048430BD70B50346002052
:1017D00000241846183001258D40ACB21D8CA5435D
:1017E0001D8409B1082909D100EB6100056825F0C5
:1017F000700505600568154305600EE00D1FC5F313
:101800004E052844056825F4E045056005684FF657
:10181000FF7606EA02263543056070BD21B10288D5
:1018200042F00202028004E002884FF6FD731A4083
:101830000280704721B1028842F00402028004E075
:1018400002884FF6FB731A400280704721B18288EC
:1018500042F08002828004E082884FF67F731A4053
:101860008280704702884FF6F7731A400280028820
:101870000A430280704782884FF68F731A40828035
:1018800082880A438280704702894FF6F8731A40B3
:10189000028102890A430281704702894FF67F73F1
:1018A0001A40028102890A4302817047818470478D
:1018B00081857047818670470187704781877047AF
:1018C000A0F84010704702884FF6FF431A4002808C
:1018D00002880A43028070470146888E704701469D
:1018E000088F70470146888F70470146B1F8400065
:1018F00070470146888C70470146088D7047024644
:101900000020138A0B400BB1012000E0002070473B
:10191000CA430282704730B50246002000230024EB
:10192000158A05EA0103958905EA010413B10CB192
:10193000012000E0002030BDCA4302827047000051
:1019400010B50446FB48844209D101218803FFF702
:101950009FF800214FF48040FFF79AF832E0F648F4
:10196000844209D101214804FFF79FF800214FF478
:101970000030FFF79AF825E0F048844209D10121B0
:101980008804FFF792F800214FF48020FFF78DF8CC
:1019900018E0EB48844209D10121C804FFF785F81B
:1019A00000214FF40020FFF780F80BE0E548844267
:1019B00008D101210805FFF778F800214FF48010C5
:1019C000FFF773F810BD2DE9F04786B005460E46C7
:1019D0000024A24600BFA1460027B08900B100BF85
:1019E0002F462C8A4CF6FF700440F08804432C826A
:1019F000AC894EF6F3100440B088318908437189F0
:101A000008430443AC81AC8A4FF6FF400440B089E0
:101A10000443AC8201A8FEF7B4FFC648874202D156
:101A2000DDF810A001E0DDF80CA0A88900F400406A
:101A300040B10AEBCA0000EB0A1031684900B0FB64
:101A4000F1F807E00AEBCA0000EB0A1031688900E0
:101A5000B0FBF1F86420B8FBF0F004012009642128
:101A600001FB1089A88900F4004040B1322000EB4E
:101A7000C900B0FBF1F000F00700044308E0322099
:101A800000EB09106421B0FBF1F000F00F000443FB
:101A90002C8106B0BDE8F0874FF41651016000219B
:101AA0008180C18001810C214181002181817047A9
:101AB00010B502460020108A4FF2FF0318400B8831
:101AC0004C8823438C882343CC88234318431082BB
:101AD00010BD0021018041808180C180704721B10B
:101AE000828942F40052828104E082894DF6FF73BC
:101AF0001A4082817047F0B5034600240026002575
:101B0000002040F66A17B94200D100BF1846C1F361
:101B1000421401F01F06012707FA06F5012C01D136
:101B20000C3004E0022C01D1103000E014301AB166
:101B300007682F43076002E00768AF430760F0BD06
:101B40001AB1838A0B43838202E0838A8B438382A8
:101B50007047028A4FF6F0731A400282028A0A43E3
:101B60000282704782894FF2FF731A408281828914
:101B70000A438281704721B1828942F00202828148
:101B800004E082894FF6FD731A4082817047028A11
:101B90004FF6DF731A400282028A0A4302827047BC
:101BA00021B1028A42F48042028204E0028A4BF6AA
:101BB000FF731A4002827047C1F3080282807047A7
:101BC00001468888C0F308007047818941F001010F
:101BD00081817047028BD2B20283028B42EA0122DA
:101BE00002837047028B02F47F420283028B0A4316
:101BF0000283704721B1828A42F02002828204E08F
:101C0000828A4FF6DF731A408282704721B1828A3E
:101C100042F01002828204E0828A4FF6EF731A408B
:101C20008282704721B1828A42F00802828204E0F7
:101C3000828A4FF6F7731A408282704721B18289F7
:101C400042F40042828103E08289C2F30E02828163
:101C5000704721B1828A42F40062828204E0828A63
:101C60004FF2FF731A4082827047828A4FF6FB73ED
:101C70001A408282828A0A438282704721B1828A14
:101C800042F00202828204E0828A4FF6FD731A401B
:101C90008282704702460020B1F5007F00D100BF6C
:101CA00013880B400BB1012000E00020704701F4C5
:101CB0000072B2F5007F00D100BFCA4302807047B6
:101CC00070B50246002400230025002040F66A1665
:101CD000B14200D100BFC1F3421501F01F0301263C
:101CE00006FA03F3012D02D19689334006E0022D56
:101CF00002D1168A334001E0968A33400C12012645
:101D000006FA04F41688344013B10CB1012000E047
:101D1000002070BD10B50022002340F66A14A142D5
:101D200000D100BF0A1201249440A3B2DC43048016
:101D300010BD000000380140004400400048004051
:101D4000004C004000500040012001F052FF0648C6
:101D500001F028FD00220121084600F0EBFE01E021
:101D600001F008FDFCE7000000380140704700BFAB
:101D7000FEE700BFFEE700BFFEE700BFFEE77047DB
:101D800070477047704710B50221012001F0EFFB4A
:101D900010BD704710B5044614B1012C18D10BE0EA
:101DA000FE49002208680121FFF707FBFB4908688C
:101DB0000021FFF7E7FA0BE0F84901220868114615
:101DC000FFF7FBFAF54908680121FFF7DBFA00BFCE
:101DD00000BF10BDFEB506460C461546062E02D0C5
:101DE000072E32D118E001211020FEF744FEADF895
:101DF0000440ADF800506946E948FEF767FF01214D
:101E0000E748FFF785FD0020FFF7C4FFE448E349FA
:101E100008603620087118E001212020FEF72BFE13
:101E2000ADF80440ADF800506946DE48FEF74EFFBD
:101E30000121DC48FFF76CFD0020FFF7ABFFD9481C
:101E4000D64908603720087100BF00BFFEBD0020E2
:101E5000704738B504464FF4E060FEF775FA022C7F
:101E600002D11C208DF80000032C02D11D208DF81A
:101E70000000042C02D11E208DF80000052C02D198
:101E800032208DF80000062C02D136208DF800009B
:101E9000072C02D137208DF8000000208DF80100BA
:101EA00003208DF8020001208DF803006846FEF73C
:101EB00050FA38BDFEB506460C4615461F46012FA2
:101EC00002D0022F08D103E00020ADF8020003E0A9
:101ED0001020ADF8020000BF00BF022E06D0032E76
:101EE00021D0042E3AD0052E6ED152E001210846B1
:101EF000FEF7C1FDADF80440ADF800500020ADF88C
:101F000006008DF8080001218807FFF701FD4FF05A
:101F10008040A24908601C20087169464FF080404B
:101F2000FEF7D4FE50E001210220FEF7A4FDADF83B
:101F30000440ADF800500020ADF806008DF8080010
:101F400001219948FFF7E4FC9748944908601D2057
:101F5000087169469448FEF7B9FE35E00121042076
:101F6000FEF789FDADF80440ADF800500020ADF853
:101F700006008DF8080001218C48FFF7C9FC8B484A
:101F8000864908601E20087169468848FEF79EFE53
:101F90001AE001210820FEF76EFDADF80440ADF80F
:101FA00000500020ADF806008DF8080001217F48A0
:101FB000FFF7AEFC7E487949086032200871694617
:101FC0007B48FEF783FE00BF00BF0020FFF7E2FE64
:101FD000FEBD2DE9F04F8DB081460D469246DDE9FC
:101FE00016783846414602F05FF8724908604FF0B3
:101FF000480B0AFB0BF07049B1FBF0F084B2601C97
:1020000086B2304602F016F83A464346CDE9000162
:1020100001F09EFFCDE9020102F046F80490B9F10B
:10202000000F09D0B9F1010F7DD0B9F1020F7BD0BB
:10203000B9F1030F79D16AE360480680012D06D01B
:10204000022D48D0032D71D0042D43D1E7E00121AA
:102050000420FEF703FD4FF40040ADF830001820D7
:102060008DF8330003208DF832000CA95448FEF798
:1020700039FA01210846FEF7FEFCADF8284047205A
:10208000ADF824000020ADF82A00ADF826008DF848
:102090002C0009A94FF08040FEF718FE6020ADF833
:1020A00014000120ADF816000020ADF81C000498C3
:1020B00001F0CDFF80B2ADF81A0005A94FF08040C5
:1020C000FEF741FE0821C806FFF78CFA01218807B8
:1020D000FFF758F9E7E001210820FEF7BFFC0820D0
:1020E000ADF8300018208DF8330003208DF8320051
:1020F0000CA93448FEF7F6F901210846FEF7BBFCAF
:10210000ADF828404720ADF824000020ADF82A00A3
:10211000ADF826008DF82C0009A94FF08040FEF79D
:10212000D5FD602003E0C0E0D2E1EFE21BE0ADF8B6
:1021300014000120ADF816000020ADF81C00049832
:1021400001F085FF80B2ADF81A0005A94FF080407C
:10215000FEF73BFE0821C806FFF74DFA012188076C
:10216000FFF710F99FE001210820FEF777FC4FF4FC
:102170008060ADF8300018208DF8330003208DF812
:1021800032000CA90F48FEF7ADF901210846FEF711
:1021900072FCADF82840472016E000003000002017
:1021A00000100040001400400004004000080040FF
:1021B000000C00402800002000A24A043800002043
:1021C00000080140000C0140ADF824000020ADF8EB
:1021D0002A00ADF826008DF82C0009A94FF08040A8
:1021E000FEF774FD6020ADF814000120ADF8160074
:1021F0000020ADF81C00049801F029FF80B2ADF872
:102200001A0005A94FF08040FEF72CFE0821C806F1
:10221000FFF7FEF901218807FFF7B4F843E0012139
:102220000820FEF71BFC4FF40060ADF830001820CA
:102230008DF8330003208DF832000CA9FE48FEF71C
:1022400051F901210846FEF716FCADF82840472059
:10225000ADF824000020ADF82A00ADF826008DF876
:102260002C0009A94FF08040FEF730FD6020ADF84A
:1022700014000120ADF816000020ADF81C000498F1
:1022800001F0E5FE80B2ADF81A0005A94FF08040DC
:10229000FEF733FE0821C806FFF7C3F901218807BE
:1022A000FFF770F800BF00BF46E3E4484680012D09
:1022B00006D0022D45D0032D7ED0042D40D1C4E0A0
:1022C00001210420FEF7CAFB0120ADF830001820E0
:1022D0008DF8330003208DF832000CA9D848FEF7A2
:1022E00001F901210820FEF7C6FBADF82840472080
:1022F000ADF824000020ADF82A00ADF826008DF8D6
:102300002C0009A9CF48FEF7E1FC6020ADF81400CD
:102310000120ADF816000020ADF81C00049801F073
:1023200096FE80B2ADF81A0005A9C648FEF70BFD6F
:102330000821C448FFF756F90121C248FFF722F8E7
:10234000C4E001210420FEF789FB0220ADF8300033
:1023500018208DF8330003208DF832000CA9B848FE
:10236000FEF7C0F801210820FEF785FBADF82840F4
:102370004720ADF824000020ADF82A00ADF8260073
:102380008DF82C0009A9AF48FEF7A0FC6020ADF83D
:1023900014000120ADF816000020ADF81C000498D0
:1023A00001F055FE80B2ADF81A0005A9A548FEF768
:1023B0000CFD0821A34800E006E0FFF71CF901210D
:1023C000A048FEF7DFFF81E001210420FEF746FB75
:1023D0000420ADF8300018208DF8330003208DF86C
:1023E00032000CA99648FEF77DF801210820FEF77F
:1023F00042FBADF828404720ADF824000020ADF89E
:102400002A00ADF826008DF82C0009A98D48FEF7AA
:102410005DFC6020ADF814000120ADF8160000202E
:10242000ADF81C00049801F012FE80B2ADF81A005D
:1024300005A98448FEF716FD08218248FFF7E8F851
:1024400001218048FEF79EFF40E001210420FEF7B5
:1024500005FB0820ADF8300018208DF8330003206C
:102460008DF832000CA97648FEF73CF801210820CF
:10247000FEF701FBADF828404720ADF8240000200E
:10248000ADF82A00ADF826008DF82C0009A96D489A
:10249000FEF71CFC6020ADF814000120ADF816001A
:1024A0000020ADF81C00049801F0D1FD80B2ADF819
:1024B0001A0005A96348FEF720FD08216148FFF7CF
:1024C000B0F801215F48FEF75DFF00BF00BF33E2B7
:1024D0005A488680012D06D0022D45D0032D7DD08F
:1024E000042D40D1D0E001210420FEF7B7FA4020AE
:1024F000ADF8300018208DF8330003208DF832003D
:102500000CA94F48FDF7EEFF01210220FEF7B3FAB8
:10251000ADF828404720ADF824000020ADF82A008F
:10252000ADF826008DF82C0009A94748FEF7CEFB30
:102530006020ADF814000120ADF816000020ADF8C1
:102540001C00049801F083FD80B2ADF81A0005A9C3
:102550003D48FEF7F8FB08213B48FFF743F801210F
:102560003948FEF70FFFD0E001210420FEF776FA8C
:102570008020ADF8300018208DF8330003208DF84E
:1025800032000CA92E48FDF7ADFF01210220FEF715
:1025900072FAADF828404720ADF824000020ADF8CD
:1025A0002A00ADF826008DF82C0009A92648FEF770
:1025B0008DFB6020ADF814000120ADF8160000205E
:1025C000ADF81C00049801F042FD80B2ADF81A008D
:1025D00005A91D48FEF7F9FB082100E007E01A48AD
:1025E000FFF709F801211848FEF7CCFE8DE0012124
:1025F0000820FEF733FA0120ADF8300018208DF8DE
:10260000330003208DF832000CA90B48FDF76AFF58
:1026100001210220FEF72FFAADF828404720ADF83F
:1026200024000020ADF82A00ADF826008DF82C001B
:1026300009A905480AE00000000C0140380000200C
:1026400000080140000C004000040040FEF73EFB83
:102650006020ADF814000120ADF816000020ADF8A0
:102660001C00049801F0F3FC80B2ADF81A0005A933
:10267000FD48FEF7F7FB0821FB48FEF7C9FF0121E3
:10268000F948FEF77FFE40E001210820FEF7E6F959
:102690000220ADF8300018208DF8330003208DF8AB
:1026A00032000CA9F148FDF71DFF01210220FEF7C1
:1026B000E2F9ADF828404720ADF824000020ADF83D
:1026C0002A00ADF826008DF82C0009A9E648FEF78F
:1026D000FDFA6020ADF814000120ADF816000020CE
:1026E000ADF81C00049801F0B2FC80B2ADF81A00FD
:1026F00005A9DD48FEF701FC0821DB48FEF791FF44
:102700000121D948FEF73EFE00BF00BF14E1D848C2
:10271000C680012D06D0022D45D0032D7ED0042D7C
:1027200040D1C5E001210820FEF798F94020ADF81E
:10273000300018208DF8330003208DF832000CA9EA
:10274000CA48FDF7CFFE01210420FEF794F9ADF849
:1027500028404720ADF824000020ADF82A00ADF84D
:1027600026008DF82C0009A9C248FEF7AFFA6020B8
:10277000ADF814000120ADF816000020ADF81C00E3
:10278000049801F064FC80B2ADF81A0005A9B948BC
:10279000FEF7D9FA0821B748FEF724FF0121B54812
:1027A000FEF7F0FDC6E001210820FEF757F9802072
:1027B000ADF8300018208DF8330003208DF832007A
:1027C0000CA9AA48FDF78EFE01210420FEF753F95B
:1027D000ADF828404720ADF824000020ADF82A00CD
:1027E000ADF826008DF82C0009A9A248FEF76EFA74
:1027F0006020ADF814000120ADF816000020ADF8FF
:102800001C00049801F023FC80B2ADF81A0005A961
:102810009848FEF7DAFA0821964800E006E0FEF74D
:10282000EAFE01219348FEF7ADFD83E00121082077
:10283000FEF714F94FF48070ADF8300018208DF8D1
:10284000330003208DF832000CA98848FDF74AFEBA
:1028500001210420FEF70FF9ADF828404720ADF81C
:1028600024000020ADF82A00ADF826008DF82C00D9
:1028700009A98048FEF72AFA6020ADF8140001206B
:10288000ADF816000020ADF81C00049801F0DFFB45
:1028900080B2ADF81A0005A97648FEF7E3FA0821E0
:1028A0007448FEF7B5FE01217248FEF76BFD41E06A
:1028B00001210820FEF7D2F84FF40070ADF8300087
:1028C00018208DF8330003208DF832000CA96748DA
:1028D000FDF708FE01210420FEF7CDF8ADF82840F1
:1028E0004720ADF824000020ADF82A00ADF82600FE
:1028F0008DF82C0009A95F48FEF7E8F96020ADF8D3
:1029000014000120ADF816000020ADF81C0004985A
:1029100001F09DFB80B2ADF81A0005A95548FEF7FD
:10292000ECFA08215348FEF77CFE01215148FEF7DE
:1029300029FD00BF00BF00BF00BF0DB0BDE8F08F94
:1029400070B504460D4629462046FEF71BFD70BDB6
:102950002DE9FC4782460C4615461E46BAF1000F8B
:1029600009D0BAF1010F38D0BAF1020F63D0BAF131
:10297000030F31D198E03E49088801F05BFB074620
:102980002A46334601F0E4FACDE9000101F073FB79
:102990001FFA80F9012C06D0022C0AD0032C0ED08D
:1029A000042C18D111E049464FF08040FEF782FF19
:1029B00011E049464FF08040FEF77EFF0BE04946AC
:1029C0004FF08040FEF77AFF05E049464FF0804027
:1029D000FEF776FF00BF00BF94E02549488801F06C
:1029E00029FB2A463346CDE9000101F0B1FA07463A
:1029F00001F041FB1FFA80F9012C06D0022C09D00E
:102A0000032C0CD0042C14D10EE049461A48FEF7D2
:102A100051FF0EE049461848FEF74EFF09E04946CF
:102A20001548FEF74BFF04E049461348FEF748FF00
:102A300000BF00BF66E00E49888801F0FBFA074638
:102A40002A46334601F084FACDE9000101F013FB78
:102A50001FFA80F9012C11D0022C14D0032C17D0AE
:102A6000042C1FD119E0000000040040000C0140BC
:102A70003800002000080040000C00404946FE4895
:102A8000FEF718FF0EE04946FB48FEF715FF09E088
:102A90004946F948FEF712FF04E04946F648FEF7BA
:102AA0000FFF00BF00BF2DE0F449C88801F0C2FA53
:102AB00007462A46334601F04BFACDE9000101F002
:102AC000DAFA1FFA80F9012C06D0022C09D0032C67
:102AD0000CD0042C14D10EE04946E948FEF7EAFE7A
:102AE0000EE04946E648FEF7E7FE09E04946E448BD
:102AF000FEF7E4FE04E04946E148FEF7E1FE00BFD0
:102B000000BF00BF00BFBDE8FC87F8B507460C4614
:102B100015461E462046FDF717FC8DF800708DF80F
:102B200001508DF8026001208DF803006846FDF722
:102B300010FCF8BD70B588B006460D46144636B197
:102B4000012E7DD0022E7CD0032E7BD1D2E300203B
:102B5000CC490860012D06D0022D52D0032D72D031
:102B6000042D4DD1EDE001210420FDF777FF4FF456
:102B70000040ADF81C0004208DF81F0007A9C248D2
:102B8000FDF7B0FC032300224FF4E0611C20FFF7A7
:102B9000BCFF01210846FDF76EFF4FF6FF70ADF850
:102BA00014004720ADF810000020ADF81600ADF875
:102BB00012008DF8180004A94FF08040FEF786F847
:102BC0000020ADF80400ADF806400120ADF8080083
:102BD0000020ADF80A00ADF80C0001A94FF08040CC
:102BE000FEF707FB03214FF08040FEF791FE012224
:102BF00003219007FEF7E1FB01218807FEF7C2FBE6
:102C0000EDE001210820FDF729FF0820ADF81C00A8
:102C100004208DF81F0007A99C48FDF763FC0323DF
:102C200000224FF4E0611C20FFF76FFF01210846EE
:102C3000FDF721FF4FF6FF70ADF81400472003E0C9
:102C4000CFE014E212E22EE0ADF810000020ADF863
:102C50001600ADF812008DF8180004A94FF080405E
:102C6000FEF734F80420ADF80400ADF8064001206A
:102C7000ADF808000020ADF80A00ADF80C0001A97D
:102C80004FF08040FEF7B5FA03214FF08040FEF789
:102C90003FFE012203219007FEF78FFB01218807E9
:102CA000FEF770FB9BE001210820FDF7D7FE4FF4F3
:102CB0008060ADF81C0004208DF81F0007A9734840
:102CC000FDF710FC032300224FF4E0611C20FFF706
:102CD0001CFF01210846FDF7CEFE4FF6FF70ADF850
:102CE00014004720ADF810000020ADF81600ADF834
:102CF00012008DF8180004A94FF08040FDF7E6FFA0
:102D00000820ADF80400ADF806400120ADF8080039
:102D10000020ADF80A00ADF80C0001A94FF080408A
:102D2000FEF767FA03214FF08040FEF7F1FD012224
:102D300003219007FEF741FB01218807FEF722FBE4
:102D40004DE001210820FDF789FE4FF40060ADF849
:102D50001C0004208DF81F0007A94C48FDF7C2FB9A
:102D6000032300224FF4E0611C20FFF7CEFE012177
:102D70000846FDF780FE4FF6FF70ADF814004720BF
:102D8000ADF810000020ADF81600ADF812008DF877
:102D9000180004A94FF08040FDF798FF0C20ADF813
:102DA0000400ADF806400120ADF808000020ADF8A1
:102DB0000A00ADF80C0001A94FF08040FEF719FAA7
:102DC00003214FF08040FEF7A3FD0122032190076D
:102DD000FEF7F3FA01218807FEF7D4FA00BF00BF1F
:102DE000C2E3022027490860012D06D0022D5DD0E4
:102DF000032D7DD0042D58D1EDE001210420FDF7F5
:102E00002DFE0120ADF81C0004208DF81F0007A93D
:102E10001D48FDF767FB032301224FF4E0613220D8
:102E2000FFF773FE01210820FDF725FE4FF6FF7026
:102E3000ADF814004720ADF810000020ADF81600E2
:102E4000ADF812008DF8180004A91148FDF73EFFF7
:102E50000020ADF80400ADF806400120ADF80800F0
:102E60000020ADF80A00ADF80C0001A90848FEF7F3
:102E7000C0F9032106480DE000040040380000209E
:102E8000000800404000002000080140000C014004
:102E9000000C0040FEF73CFD01220321FE48FEF736
:102EA0008CFA0121FC48FEF76DFADEE001210420D6
:102EB000FDF7D4FD0220ADF81C0004208DF81F00A2
:102EC00007A9F648FDF70EFB032301224FF4E0614A
:102ED0003220FFF71AFE01210820FDF7CCFD4FF646
:102EE000FF70ADF814004720ADF81000002000E09E
:102EF00028E0ADF81600ADF812008DF8180004A90E
:102F0000E548FDF7E3FE0420ADF80400ADF8064007
:102F10000120ADF808000020ADF80A00ADF80C0063
:102F200001A9DD48FEF765F90321DB48FEF7F0FC57
:102F300001220321D848FEF740FA0121D648FEF7C6
:102F400021FA92E001210420FDF788FD0420ADF86C
:102F50001C008DF81F0007A9D048FDF7C3FA032312
:102F600001224FF4E0613220FFF7CFFD012108205C
:102F7000FDF781FD4FF6FF70ADF814004720ADF866
:102F800010000020ADF81600ADF812008DF8180002
:102F900004A9C148FDF79AFE0820ADF80400ADF879
:102FA00006400120ADF808000020ADF80A00ADF899
:102FB0000C0001A9B848FEF71CF90321B648FEF73A
:102FC000A7FC01220321B448FEF7F7F90121B2481A
:102FD000FEF7D8F949E001210420FDF73FFD082064
:102FE000ADF81C0004208DF81F0007A9AB48FDF7C1
:102FF00079FA032301224FF4E0613220FFF785FDC7
:1030000001210820FDF737FD4FF6FF70ADF81400E1
:103010004720ADF810000020ADF81600ADF8120002
:103020008DF8180004A99C48FDF750FE0C20ADF85F
:103030000400ADF806400120ADF808000020ADF80E
:103040000A00ADF80C0001A99348FEF7D2F803215D
:103050009148FEF75DFC012203218F48FEF7ADF990
:1030600001218D48FEF78EF900BF00BF7CE20220EF
:103070008B490860012D06D0022D4ED0032D7DD046
:10308000042D49D1DFE001210420FDF7E7FC4020B9
:10309000ADF81C0004208DF81F0007A97F48FDF73C
:1030A00021FA032301224FF4E0611D20FFF72DFDDB
:1030B00001210220FDF7DFFC4FF6FF70ADF8140090
:1030C0004720ADF810000020ADF81600ADF8120052
:1030D0008DF8180004A97348FDF7F8FD0020ADF83D
:1030E0000400ADF806400120ADF808000020ADF85E
:1030F0000A00ADF80C0001A96A48FEF77AF803212E
:103100006848FEF705FC012203216648FEF755F9E1
:1031100001216448FEF736F9EAE001210420FDF7B9
:103120009DFC8020ADF81C0004208DF81F0007A92D
:103130005A48FDF7D7F9032301224FF4E0611D201F
:10314000FFF7E3FC01210220FDF795FC4FF6FF702D
:10315000ADF814004720ADF810000020ADF81600BF
:10316000ADF812008DF8180004A94E48FDF7AEFD29
:103170000420ADF80400ADF8064000E019E001209D
:10318000ADF808000020ADF80A00ADF80C0001A968
:103190004448FEF72EF803214248FEF7B9FB01220E
:1031A00003214048FEF709F901213E48FEF7EAF8FD
:1031B0009EE001210820FDF751FC0120ADF81C0024
:1031C00004208DF81F0007A93748FDF78BF903236A
:1031D00001224FF4E0611D20FFF797FC012102203E
:1031E000FDF749FC4FF6FF70ADF814004720ADF82D
:1031F00010000020ADF81600ADF812008DF8180090
:1032000004A92848FDF762FD0820ADF80400ADF8D8
:1032100006400120ADF808000020ADF80A00ADF826
:103220000C0001A91F48FDF7E4FF03211D48FEF72C
:103230006FFB012203211B48FEF7BFF8012119484B
:10324000FEF7A0F854E001210820FDF707FC02205A
:10325000ADF81C0004208DF81F0007A91248FDF7E7
:1032600041F9032301224FF4E0611D20FFF74DFCDB
:1032700001210220FDF7FFFB4FF6FF70ADF81400AF
:103280004720ADF810000020ADF81600ADF8120090
:103290008DF8180004A909E0000C00400008014066
:1032A0004000002000040040000C0140FE48FDF7F3
:1032B0000DFD0C20ADF80400ADF806400120ADF87E
:1032C00008000020ADF80A00ADF80C0001A9F6488E
:1032D000FDF78FFF0321F448FEF71AFB01220321BB
:1032E000F148FEF76AF80121EF48FEF74BF800BFFE
:1032F00000BF39E10320ED490860012D06D0022D01
:103300004ED0032D7ED0042D49D1E0E001210820CC
:10331000FDF7A4FB4020ADF81C0004208DF81F0031
:1033200007A9E348FDF7DEF8032301224FF4E0612B
:103330001D20FFF7EAFB01210420FDF79CFB4FF65F
:10334000FF70ADF814004720ADF810000020ADF874
:103350001600ADF812008DF8180004A9D548FDF745
:10336000B5FC0020ADF80400ADF806400120ADF832
:1033700008000020ADF80A00ADF80C0001A9CD4806
:10338000FDF737FF0321CB48FEF7C2FA01220321E4
:10339000C848FEF712F80121C648FDF7F3FFE1E047
:1033A00001210820FDF75AFB8020ADF81C00042005
:1033B0008DF81F0007A9BE48FDF794F803230122EA
:1033C0004FF4E0611D20FFF7A0FB01210420FDF771
:1033D00052FB4FF6FF70ADF814004720ADF8100017
:1033E0000020ADF81600ADF812008DF8180004A901
:1033F000B048FDF76BFC0420ADF80400ADF80640C2
:10340000012000E018E0ADF808000020ADF80A0047
:10341000ADF80C0001A9A748FDF7EBFE0321A54874
:10342000FEF776FA01220321A248FDF7C6FF01212B
:10343000A048FDF7A7FF95E001210820FDF70EFB4E
:103440004FF48070ADF81C0004208DF81F0007A910
:103450009748FDF747F8032301224FF4E0611D2050
:10346000FFF753FB01210420FDF705FB4FF6FF702A
:10347000ADF814004720ADF810000020ADF816009C
:10348000ADF812008DF8180004A98A48FDF71EFC5B
:103490000820ADF80400ADF806400120ADF80800A2
:1034A0000020ADF80A00ADF80C0001A98148FDF735
:1034B000A0FE03217F48FEF72BFA012203217D485D
:1034C000FDF77BFF01217B48FDF75CFF4AE001210E
:1034D0000820FDF7C3FA4FF40070ADF81C0004207B
:1034E0008DF81F0007A97248FCF7FCFF0323012297
:1034F0004FF4E0611D20FFF708FB01210420FDF7D8
:10350000BAFA4FF6FF70ADF814004720ADF810007E
:103510000020ADF81600ADF812008DF8180004A9CF
:103520006448FDF7D3FB0C20ADF80400ADF806406D
:103530000120ADF808000020ADF80A00ADF80C003D
:1035400001A95C48FDF755FE03215A48FEF7E0F952
:10355000012203215748FDF730FF01215548FDF7AF
:1035600011FF00BF00BF00BF00BF08B070BD70B545
:1035700004460D4634B1012C40D0022C78D0032CE7
:103580003BD1BBE001218807FEF7C5F940B14A48AD
:103590008088401C4849888001218807FEF7CCF9C3
:1035A00002214807FEF7B7F938B34348407880B99D
:1035B00000214FF08040FEF779F900203E498880D5
:1035C000488002214807FEF78FF801203A494870E9
:1035D0000FE04FF08040FEF77FF937494880002127
:1035E0004FF08040FEF780F80020334948700120FA
:1035F000087002214807FEF79FF9B8E001212F4823
:10360000FEF789F940B12C488088401C2A498880FF
:1036100001212A48FEF790F902212848FEF77BF99C
:1036200020B32548407878B900212448FEF73EF9B8
:10363000002021498880488002212048FEF754F864
:1036400001201D4948700DE01C48FEF745F91A4954
:10365000488000211948FEF747F8002016494870B5
:103660000120087002211548FEF766F97FE0FFE7A8
:1036700001210D48FEF74FF940B10F488088401CEA
:103680000D49888001210848FEF756F902210648B5
:10369000FEF741F988B308484078E0B900210248B4
:1036A000FEF704F900200BE0000400404000002079
:1036B000000C01400008004050000020000C0040B9
:1036C00035498880488002214807FEF70DF801201F
:1036D000314948700DE03148FEF7FEF82E49488028
:1036E00000212E48FEF700F800202B4948700120E9
:1036F000087002212948FEF71FF938E00121284807
:10370000FEF709F940B124488088401C224988808E
:1037100001212348FEF710F902212148FEF7FBF8AA
:1037200020B31D48407878B900211D48FEF7BEF847
:10373000002019498880488002211948FDF7D4FFEC
:103740000120154948700DE01548FEF7C5F81249EB
:10375000488000211248FDF7C7FF00200E4948703D
:103760000120087002210E48FEF7E6F800BF00BFF6
:10377000002070BD084A1278012A09D1064A5288F1
:10378000521C054B9B8802EB03400022024B1A702F
:103790000146084670470000500000200004004029
:1037A00000080040F849086070472DE9F04186B0F4
:1037B00080460F4615461E460C9CB8F1060F50D2A7
:1037C000DFE808F04F03509BE8FE4FF40070ADF8BF
:1037D000140018208DF8170003208DF8160005A995
:1037E000EA48FCF77FFE4FF48060ADF81400042037
:1037F0008DF8170005A9E548FCF774FE0197082D20
:1038000002D10020ADF80800092D03D14FF48050FB
:10381000ADF80800012E02D10020ADF80A00022EFA
:1038200002D13003ADF80A00012C03D14FF4C0607F
:10383000ADF80C00022C02D16002ADF80C0014B9F6
:103840000020ADF80C000020ADF810000C20ADF801
:103850000E0001A9CE48FEF7B6F80121CC48FEF7CC
:103860003EF931E10420ADF8140018208DF817005E
:1038700003208DF8160005A9C448FCF733FE082084
:10388000ADF8140004208DF8170005A9BF48FCF717
:1038900029FE0197082D02D10020ADF80800092D5E
:1038A00003D14FF48050ADF80800012E02D1002062
:1038B000ADF80A00022E02D13003ADF80A00012C47
:1038C00003D14FF4C060ADF80C00022C02D16002AD
:1038D000ADF80C0014B90020ADF80C000020ADF8D4
:1038E00010000C20ADF80E0001A9AA48FEF76BF8F5
:1038F0000121A848FEF7F3F8E6E04FF48060ADF848
:10390000140018208DF8170003208DF8160005A963
:10391000A148FCF7E7FD4FF40060ADF81400042067
:103920008DF8170005A99C48FCF7DCFD0197082DD0
:1039300002D10020ADF80800092D03D14FF48050CA
:10394000ADF80800012E02D10020ADF80A00022EC9
:1039500002D13003ADF80A00012C03D14FF4C0604E
:10396000ADF80C00022C02D16002ADF80C0014B9C5
:103970000020ADF80C000020ADF810000C20ADF8D0
:103980000E0001A98548FEF71EF801218348FEF7C5
:10399000A6F899E04FF48060ADF8140018208DF877
:1039A000170003208DF8160005A97D48FCF79AFD45
:1039B0004FF40060ADF8140004208DF8170000E00B
:1039C00037E005A97648FCF78DFD0197082D02D157
:1039D0000020ADF80800092D03D14FF48050ADF858
:1039E0000800012E02D10020ADF80A00022E02D1FB
:1039F0003003ADF80A00012C03D14FF4C060ADF8DC
:103A00000C00022C02D16002ADF80C0014B90020A9
:103A1000ADF80C000020ADF810000C20ADF80E0041
:103A200001A96048FDF7CFFF01215E48FEF757F876
:103A30004AE04FF48050ADF8140018208DF81700BC
:103A400003208DF8160005A95548FCF74BFD04200E
:103A5000ADF814008DF8170005A95348FCF742FD96
:103A60000197082D02D10020ADF80800092D03D1DF
:103A70004FF48050ADF80800012E02D10020ADF8BF
:103A80000A00022E02D13003ADF80A00012C03D146
:103A90004FF4C060ADF80C00022C02D16002ADF80A
:103AA0000C0014B90020ADF80C000020ADF8100097
:103AB0000C20ADF80E0001A93C48FDF784FF012160
:103AC0003A48FEF70CF800BF00BF002006B0BDE882
:103AD000F08170B504460D4629462046FEF76CF885
:103AE00000BF80212046FEF7D5F80028F9D070BD30
:103AF0002DE9F04107460D461646002405E0295DF4
:103B00003846FFF7E6FF601CC4B2B442F7DB00BFE3
:103B100040213846FEF7BEF80028F9D0BDE8F08114
:103B200070B506460C46002500BF615D3046FFF7C4
:103B3000D0FF6D1C605D0028F7D100BF40213046EA
:103B4000FEF7A8F80028F9D070BD2DE9F041054630
:103B50000C46260AE7B231462846FEF72DF800BF8C
:103B600080212846FEF796F80028F9D039462846E5
:103B7000FEF722F800BF80212846FEF78BF80028C8
:103B8000F9D0BDE8F0810000580000200008014095
:103B90000038014000440040000C01400048004053
:103BA00000100140004C0040001401400050004053
:103BB00070B504460D46E1B2DB4A1068FDF7FCFF24
:103BC00000BFD94908688021FEF764F80028F8D0C2
:103BD000204670BD10B5044600BFD34908682021B7
:103BE000FEF758F80028F8D0CF490868FDF7E8FF3D
:103BF00010BD10B586B00446062C53D2DFE804F0A1
:103C0000520353A1F3F101210420FCF727FF012106
:103C10008803FCF723FF4FF40070ADF81400182060
:103C20008DF8170003208DF8160005A9BF48FCF792
:103C300059FC4FF48060ADF8140004208DF8170093
:103C400005A9BA48FCF74EFC4FF4E1300190002082
:103C5000ADF80800ADF80A00ADF80C00ADF81000A2
:103C60000C20ADF80E0001A9B148FDF7ACFE4FF4F1
:103C7000A060FCF769FB25208DF8000001208DF87D
:103C800001008DF802008DF803006846FCF761FB27
:103C9000012240F22551A648FDF72DFF0121A4483D
:103CA000FDF71DFF3DE101210420FCF7D7FE0121B6
:103CB0004804FCF7D3FE0420ADF8140018208DF85A
:103CC000170003208DF8160005A99848FCF70AFC98
:103CD0000820ADF8140004208DF8170005A99348BA
:103CE000FCF700FC4FF4E13001900020ADF8080033
:103CF000ADF80A00ADF80C00ADF810000C20ADF8DE
:103D00000E0001A98B48FDF75EFE4FF4A060FCF7A2
:103D10001BFB26208DF8000001208DF801008DF896
:103D200002008DF803006846FCF713FB012240F205
:103D300025517F48FDF7DFFE01217E48FDF7CFFECC
:103D4000EFE001210820FCF789FE01218804FCF73F
:103D500085FE4FF48060ADF8140018208DF8170030
:103D600003208DF8160005A97348FCF7BBFB4FF440
:103D70000060ADF8140004208DF8170005A96E4806
:103D8000FCF7B0FB4FF4E13001900020ADF80800E3
:103D9000ADF80A00ADF80C00ADF810000C20ADF83D
:103DA0000E0001A96548FDF70EFE4FF4A060FCF778
:103DB000CBFA27208DF8000001208DF801008DF846
:103DC00002008DF803006846FCF7C3FA012240F2B6
:103DD00025515748FDF78FFE01215848FDF77FFE1A
:103DE0009FE050E0FFE701211020FCF737FE0121A2
:103DF000C804FCF733FE4FF48060ADF814001820BF
:103E00008DF8170003208DF8160005A94C48FCF723
:103E100069FB4FF40060ADF8140004208DF8170022
:103E200005A94748FCF75EFB4FF4E1300190002004
:103E3000ADF80800ADF80A00ADF80C00ADF81000C0
:103E40000C20ADF80E0001A93E48FDF7BCFD4FF473
:103E5000A060FCF779FA34208DF8000001208DF87D
:103E600001008DF802008DF803006846FCF771FA36
:103E7000012240F225512E48FDF73DFE0121314837
:103E8000FDF72DFE4DE001211020FCF7E7FD01219B
:103E90000805FCF7E3FD4FF48050ADF8140018203E
:103EA0008DF8170003208DF8160005A92448FCF7AB
:103EB00019FB0420ADF814008DF8170005A922485D
:103EC000FCF710FB4FF4E13001900020ADF8080042
:103ED000ADF80A00ADF80C00ADF810000C20ADF8FC
:103EE0000E0001A91948FDF76EFD4FF4A060FCF724
:103EF0002BFA25208DF8000001208DF801008DF8A7
:103F000002008DF803006846FCF723FA012240F214
:103F100025510E48FDF7EFFD01210C48FDF7DFFDAF
:103F200000BF00BF06B010BD5800002000080140CF
:103F30000038014000440040000C014000480040AF
:103F400000100140004C00400014014000500040AF
:103F50002DE9FE4F81EA030404F0004421F0004102
:103F600000944FF0000B23F0004350EA01045ED0B0
:103F700052EA03045BD0C3F30A54C1F30A552C443C
:103F8000A4F2F3340194A0FB0254C1F3130141F4F1
:103F90008011C3F3130343F4801301FB024400FBBD
:103FA000034E840A970A44EA815447EA8357A4FBE4
:103FB000076802958D0A05FB07854FEA932C04FBE1
:103FC0000C542705029D4FEA065847EA1637B5EB11
:103FD00008056EEB070C870E920E47EA811742EA3E
:103FE0008312A7FB0201B6EB0B0164EB00042B0D5F
:103FF00043EA0C335E1844EB1C50DA465146E7FBAB
:104000000201C5F313044FEA0B3343EA14534FEA9A
:104010000432019C43EA0603A4F10C040294009CC0
:10402000CDE900B400F0B2F803B0BDE8F08F002095
:104030000146F9E70EB540F2334102910021CDE986
:1040400000110A460B4600F0A1F803B000BD20F0B5
:104050000040C10DC0F3160040F400007F2901DAD2
:1040600000207047962903DCC1F19601C8407047D3
:10407000963988407047C1F30A5210B5C1F3130155
:1040800040F2FF3341F480119A4201DA002010BD62
:1040900040F233439A42A2F2334203DC524200F030
:1040A0001FF810BD904010BD01F0004330B421F066
:1040B000004150EA010206D00A0DA2F56072C1F378
:1040C0001301002A02DC30BC00207047440F44EA90
:1040D000C104C100E01830BC00EBC25000F010B8C1
:1040E000202A04DB203A21FA02F00021704721FA4D
:1040F00002F3D040C2F120029140084319467047B4
:104100000029A8BF7047401C490008BF20F00100EB
:10411000704710B4B0FA80FC00FA0CF050EA0104C9
:1041200004BF10BC704749B1CCF1200421FA04F45B
:1041300011FA0CF118BF012121430843A3EB0C0134
:10414000CB1D4FEA00614FEA102042BF002010BC97
:10415000704700EBC35010440029A4BF10BC704747
:10416000401C490008BF20F0010010BC704710B58A
:10417000141E73F1000408DA401C41F1000192188A
:104180005B411A4301D120F0010010BD2DE9F04D33
:1041900092469B4611B1B1FA81F202E0B0FA80F288
:1041A0002032904600F052F804460F4640EA0A00DA
:1041B00041EA0B0153465A46084313D0114653EACD
:1041C000010019D0C8F140025046FFF789FF0546AB
:1041D0000E4650465946424600F038F8084305D08E
:1041E000012004E020463946BDE8F08D002005435B
:1041F00046EAE0762C4337430A986305E40AA0EBCD
:1042000008000022FD0A44EA47540A3002D5002083
:104210000146E9E7010510196941DDE90845001982
:104220006941BDE8F04DA2E7064C074D06E0E068A5
:1042300040F0010394E8070098471034AC42F6D3ED
:10424000FBF77AFF88420008A8420008202A04DB16
:10425000203A00FA02F1002070479140C2F1200399
:1042600020FA03F319439040704702E008C8121F78
:1042700008C1002AFAD170477047002001E001C14F
:10428000121F002AFBD17047A8420008000000203E
:104290005C0000006A420008044300085C00002043
:1042A000040400007A42000800A24A040000000052
:1042B00000000000010203040607080900000000D6
:1042C00001020304010203040607080902040608A8
:1042D0000000000040420F0000000000000000004D
:1042E00000000000000000000000000000000000CE
:1042F00000000000000000000000000000000000BE
:0443000000000000B9
:0400000508000131BD
:00000001FF
