:020000040800F2
:100000004804002045010008B9190008BB19000880
:10001000BF190008C3190008C71900080000000034
:10002000000000000000000000000000CB190008E4
:10003000CD19000800000000CF190008D1190008F0
:100040005F0100085F0100085F0100085F01000810
:100050005F0100085F0100085F0100085F01000800
:100060005F0100085F0100085F0100085F010008F0
:100070005F0100085F0100085F0100085F010008E0
:100080005F0100085F0100085F0100085F010008D0
:100090005F0100085F0100085F0100085F010008C0
:1000A0005F0100085F0100085F0100085F010008B0
:1000B0005F0100085F0100085F0100085F010008A0
:1000C0005F0100085F0100085F0100085F01000890
:1000D0005F0100085F0100085F0100085F01000880
:1000E0005F0100085F0100085F0100085F01000870
:1000F0005F0100085F0100085F0100085F01000860
:100100005F0100085F0100085F0100085F0100084F
:100110005F0100085F010008D31900085F010008B3
:100120005F0100085F0100085F0100085F0100082F
:10013000DFF80CD002F014FE004800474119000817
:10014000480400200648804706480047FEE7FEE7CF
:10015000FEE7FEE7FEE7FEE7FEE7FEE7FEE7FEE777
:1001600047020008310100080CB500200190009002
:100170006C48006840F480306A49086000BF6948F4
:10018000006800F4003000900198401C0190009835
:1001900018B90198B0F5A06FF1D16248006800F479
:1001A000003010B10120009001E000200090009884
:1001B000012843D15C48006840F010005A490860AB
:1001C0000846006820F0030008600846006840F018
:1001D0000200086053484068524948600846406839
:1001E00048600846406840F48060486008464068BF
:1001F00020F47C1048600846406840F4E8104860ED
:100200000846006840F08070086000BF45480068FC
:1002100000F000700028F9D04248406820F0030048
:10022000404948600846406840F00200486000BF0E
:100230003C48406800F00C000828F9D10CBD10B50E
:10024000FFF792FF10BD10B53648006840F001007E
:1002500034490860084640683449084031494860DC
:1002600008460068324908402E4908600846006880
:1002700020F4802008600846406820F4FE004860B2
:100280004FF41F008860FFF7DAFF4FF00060294944
:10029000086010BD10B5002100200022214B5B68D2
:1002A00003F00C0121B1042906D0082928D107E068
:1002B000214B224C236027E01F4B204C236023E07E
:1002C000184B5B6803F47010164B5B6803F48032C4
:1002D000022303EB904022B9194B4343174C236090
:1002E0000DE0104B5B6803F4003323B1144B434320
:1002F000124C236003E0104B4343104C236003E097
:100300000D4B0E4C236000BF00BF064B5B68C3F370
:1003100003130C4CE15C094B1B68CB40074C23607A
:1003200010BD000000100240002002400000FFF855
:10033000FFFFF6FE08ED00E000127A00000000204A
:1003400000093D000400002031490143314A116099
:10035000704770B5002100230F22C47804B32D4CE0
:10036000246804F4E064C4F5E064210AC1F10403E4
:10037000CA40447804FA03F1847814402143090107
:10038000254C0678A155047804F01F050124AC40E3
:1003900005786D11AD0005F1E025C5F8004109E0D3
:1003A000047804F01F050124AC401C4D067876113A
:1003B00045F8264070BD1A4A0A400243154B1B1FE0
:1003C0001A60704739B1134A121D12680243114B6B
:1003D0001B1D1A6006E00F4A121D126882430D4B66
:1003E0001B1D1A607047042808D14FF0E0210969ED
:1003F00041F004014FF0E022116107E04FF0E021ED
:10040000096921F004014FF0E022116170470000FA
:100410000000FA050CED00E000E400E080E100E0FF
:1004200080FFFF1F10B50446CC48844208D101214B
:10043000042000F02DFB0021042000F029FB46E001
:10044000C748844208D10121082000F021FB002187
:10045000082000F01DFB3AE0C248844208D1012187
:10046000102000F015FB0021102000F011FB2EE001
:10047000BD48844208D10121202000F009FB002161
:10048000202000F005FB22E0B848844208D1012179
:10049000402000F0FDFA0021402000F0F9FA16E0BB
:1004A000B348844208D10121802000F0F1FA0021F4
:1004B000802000F0EDFA0AE0AE48844207D1012125
:1004C000801500F0E5FA0021A01500F0E1FA10BD5A
:1004D00010B50121084600F0DBFA0021012000F0F0
:1004E000D7FA10BD2DE9F041024600250026002074
:1004F00000230024002791F803C00CF00F0591F8A9
:1005000003C00CF0100CBCF1000F03D091F802C036
:100510004CEA050591F800C0BCF1000F31D0146819
:1005200000202BE04FF0010C0CFA00F3B1F800C0F2
:100530000CEA03069E4220D183004FF00F0C0CFA08
:1005400003F7BC4305FA03FC4CEA040491F803C02A
:10055000BCF1280F06D14FF0010C0CFA00FCC2F8D8
:1005600014C00AE091F803C0BCF1480F05D14FF068
:10057000010C0CFA00FCC2F810C0401C0828D1D3B2
:100580001460B1F800C0BCF1FF0F34DD54680020E6
:100590002EE000F1080C4FF0010808FA0CF3B1F856
:1005A00000C00CEA03069E4221D183004FF00F0CDD
:1005B0000CFA03F7BC4305FA03FC4CEA040491F877
:1005C00003C0BCF1280F05D100F1080C08FA0CF8A3
:1005D000C2F8148091F803C0BCF1480F07D100F1B4
:1005E000080C4FF0010808FA0CF8C2F81080401C03
:1005F0000828CED35460BDE8F0814FF6FF7101802A
:10060000022181700421C170704702460020936866
:100610000B400BB1012000E00020704701468868C4
:1006200080B2704702460020D3680B400BB1012016
:1006300000E0002070470146C86880B27047016141
:100640007047416170470AB1016100E04161704744
:10065000C16070474FF480320A43826181618261D8
:1006600082698269704702460020434B18684FF642
:100670008073184040EA021008433F4B18607047EF
:100680003E49C8617047F0B50A46002300240021A6
:10069000002500F00046B6F1004F02D1364EF16958
:1006A00001E0354E7168C0F3034583B200F4401693
:1006B000B6F5401F08D121F070612F4E766826F004
:1006C00070662D4F7E6012E000F48016B6F5801F34
:1006D00006D1032606FA05F4A14341F0706106E055
:1006E000460D360103FA06F6B14341F0706122B1BE
:1006F000460D360103FA06F6314300F00046B6F126
:10070000004F02D11C4EF16101E01B4E7160F0BD43
:1007100030B500228B071C0F0F2303FA04F2164B8F
:1007200008338C1053F824309343134C08348D1045
:1007300044F8253023468C1053F824308C07240FBE
:1007400000FA04F423430C4C08348D1044F825308F
:1007500030BD0A49DC3108607047000000080140E4
:10076000000C01400010014000140140001801403D
:10077000001C014000200140000001400000204218
:10078000DF48006840F00100DD4908600846406825
:10079000DC490840DA49486008460068DA49084000
:1007A000D74908600846006820F4802008600846A1
:1007B000406820F4FE0048604FF41F0088607047D6
:1007C000CF49096821F48031CD4A1160114609688A
:1007D00021F480211160B0F5803F03D0B0F5802F67
:1007E0000ED106E0C649096841F48031C44A11605F
:1007F00007E0C349096841F4A021C14A116000E043
:1008000000BF00BF704710B5014600220023002042
:100810004A11012A02D1BA4C236806E0022A02D109
:10082000B74C236A01E0B64C636A01F01F02012451
:1008300094401C400CB1012000E0002010BD38B5F0
:10084000002000900024002500BF3120FFF7DBFFCF
:1008500005460098401C00900098B0F5A06F01D0AC
:10086000002DF2D03120FFF7CEFF08B1012400E0C7
:100870000024204638BD01460020A14A106820F01F
:10088000F80040EAC10010607047A0490860704756
:10089000024600209A4B586820F47C1042EA01037B
:1008A0001843974B5860704798490866704701464F
:1008B0000020934A506820F00300084350607047BE
:1008C0008F48406800F00C007047014600208C4AB9
:1008D000506820F0F0000843506070470146002047
:1008E000874A506820F4E060084350607047014632
:1008F0000020834A506820F4605040EAC1005060F4
:10090000704729B17E4A527A02437D4B5A7204E005
:100910007B4A527A82437A4B5A7270477B49D8316C
:100920000860704701460020754A506820F4404036
:100930000843506070470021714A20321170704A9C
:1009400082F82010012802D004280AD104E00121F5
:100950006B4A2032117005E00521694A203211707E
:1009600000E000BF00BF70476949086070476449F4
:10097000096A0143624A1162704765494439086057
:10098000704730B500210022002400235C4D6D68C3
:1009900005F00C0121B1042905D0082923D105E077
:1009A0005C4D056022E05B4D05601FE0544D6D68B5
:1009B00005F47012524D6D6805F48034022505EB84
:1009C00092421CB9544D554305600BE04C4D6D6887
:1009D00005F400351DB1504D5543056002E04D4D05
:1009E0005543056002E04B4D056000BF00BF444D1C
:1009F0006D6805F0F0010909484D6B5C0568DD4044
:100A000045603F4D6D6805F4E061090A434D6B5C3C
:100A10004568DD4085603A4D6D6805F46051C90A4E
:100A20003E4D6B5C4568DD40C560354D6D6805F435
:100A30004041890B3A4D6B5CC568B5FBF3F5056128
:100A400030BD29B12E4A526902432D4B5A6104E050
:100A50002B4A526982432A4B5A61704729B1284A6E
:100A600092690243264B9A6104E0254A92698243C7
:100A7000234B9A61704729B1214AD2690243204B26
:100A8000DA6104E01E4AD26982431D4BDA61704785
:100A900029B11B4AD2680243194BDA6004E0184AB4
:100AA000D2688243164BDA60704729B1144A126942
:100AB0000243134B1A6104E0114A12698243104B3E
:100AC0001A61704712494039086070470F49C8647D
:100AD00070470B49C87170470948406A40F0807000
:100AE00007494862704701460020054A92680A405B
:100AF0000AB1012000E00020704701498872704768
:100B0000001002400000FFF8FFFFF6FE0000424226
:100B10008004424200127A0000093D0014000020C7
:100B20002400002010B50446FE48844208D101216B
:100B3000C014FFF7ADFF0021E014FFF7A9FFC4E0E8
:100B4000B4F1804F08D101210846FFF7AEFF002124
:100B50000120FFF7AAFFB8E0F348844208D1012141
:100B60000220FFF7A2FF00210220FFF79EFFACE06A
:100B7000EE48844208D101210420FFF796FF0021AE
:100B80000420FFF792FFA0E0E948844208D1012148
:100B90000820FFF78AFF00210820FFF786FF94E076
:100BA000E448844208D101211020FFF77EFF002194
:100BB0001020FFF77AFF88E0DF48844208D1012146
:100BC0002020FFF772FF00212020FFF76EFF7CE05E
:100BD000DA48844208D101214014FFF759FF00216F
:100BE0006014FFF755FF70E0D548844209D1012118
:100BF000C804FFF74DFF00214FF40020FFF748FF26
:100C000063E0D048844209D101210805FFF740FF85
:100C100000214FF48010FFF73BFF56E0CA488442A2
:100C200009D101214805FFF733FF00214FF40010DF
:100C3000FFF72EFF49E0C548844208D1012140203A
:100C4000FFF733FF00214020FFF72FFF3DE0C048B2
:100C5000844208D101218020FFF727FF0021802056
:100C6000FFF723FF31E0BB48844208D10121801502
:100C7000FFF71BFF0021A015FFF717FF25E0B6487F
:100C8000844209D101210804FFF702FF00214FF43B
:100C90008030FFF7FDFE18E0B048844209D1012101
:100CA0004804FFF7F5FE00214FF40030FFF7F0FE97
:100CB0000BE0AB48844208D101218804FFF7E8FE2D
:100CC00000214FF48020FFF7E3FE10BD00220288D0
:100CD000944B98420ED0994B98420BD0B0F1804F74
:100CE00008D0914B984205D0904B984202D0904B3F
:100CF000984204D14FF68F731A404B881A438D4B9C
:100D0000984207D08C4B984204D04FF6FF431A40CC
:100D1000CB881A4302808B8883850B880385814B9F
:100D200098420BD0854B984208D08B4B984205D007
:100D30008A4B984202D08A4B984201D10B7A0386A3
:100D400001238382704770B5002400220023058CA4
:100D50004FF6FE7635400584028C8388048B4FF66F
:100D60008F752C40B51E2C400D882C43751E2A40D3
:100D70000D892A434D882A436A4DA8420BD06F4DF6
:100D8000A84208D0744DA84205D0744DA84202D0A4
:100D9000734DA84213D14FF6F7752A404D892A4367
:100DA0004FF6FB752A408D882A434FF6FF652B408E
:100DB0004FF6FF552B408D892B43CD892B438380E4
:100DC0000483CD888586028470BD70B5002400221E
:100DD0000023058C4FF6EF7635400584028C83881E
:100DE000048B48F6FF752C404FF6FF452C400D88CC
:100DF0004FF6FF7606EA05252C434FF6DF752A40AD
:100E00000D8906EA05152A434D8806EA05152A4389
:100E1000444DA84202D0494DA8421DD14FF67F75DE
:100E20002A404D894FF6FF7606EA05152A434FF60C
:100E3000BF752A408D8806EA05152A434FF6FF350F
:100E40002B404FF2FF752B408D8906EA85052B4319
:100E5000CD8906EA85052B4383800483CD880587E9
:100E6000028470BD70B5002400220023058C4FF66B
:100E7000FF6635400584028C8388848B4FF68F751E
:100E80002C404FF6FC752C400D882C434FF6FF5537
:100E90002A400D894FF6FF7606EA05252A434D883C
:100EA00006EA05252A431F4DA84202D0234DA84239
:100EB0001DD14FF2FF752A404D894FF6FF7606EAA5
:100EC00005252A434FF6FF352A408D8806EA052579
:100ED0002A434EF6FF752B404DF6FF752B408D894A
:100EE00006EA05152B43CD8906EA05152B438380B9
:100EF0008483CD888587028470BD70B5002200236D
:100F00000024058C4EF6FF7635400584038C8488DA
:100F1000828B48F6FF752A404FF6FF452A400D8820
:100F200020E00000002C01400004004000080040C8
:100F3000000C00400010004000140040003401404C
:100F4000004C014000500140005401400018004096
:100F5000001C0040002000400040014000440140CF
:100F6000004801404FF6FF7606EA05252A434DF674
:100F7000FF752B400D8906EA05352B434D8806EA9F
:100F800005352B43FA4DA84202D0FA4DA84208D1AC
:100F90004BF6FF752C408D894FF6FF7606EA8515D6
:100FA0002C4384808283CD88A0F84050038470BD98
:100FB000828B4FF2FF331A408283828B4FF6FF738E
:100FC00003EA01231A4382837047F0B50C461546A5
:100FD000002200210026078C4EF6FF7C07EA0C0752
:100FE0000784828B018C4FF6FF7707EA043640F6C0
:100FF000FF473A404FF6FF7707EA05273A434FF697
:10100000FF7707EA03373A43D94FB8420ED0D94F9A
:10101000B8420BD0B0F1804F08D0D74FB84205D0BE
:10102000D64FB84202D0D64FB84206D14DF6FF7720
:10103000394046F48057394305E047F6FF573940B9
:1010400044F48057394382830184F0BD828B4FF68C
:10105000F3731A408283828B0A4382837047F0B510
:101060000C461546002200210026078C4FF6FF6C27
:1010700007EA0C070784828B018C4FF6FF7707EA9B
:1010800004264FF60C773A404FF6FF7707EA03172E
:101090002F433A43B64FB8420ED0B64FB8420BD0AA
:1010A000B0F1804F08D0B44FB84205D0B34FB8422A
:1010B00002D0B34FB84206D14FF6FF57394046F43D
:1010C0008077394305E04FF2FF57394044F4807789
:1010D000394382830184F0BD028B4FF2FF331A4003
:1010E0000283028B4FF6FF7303EA01231A43028344
:1010F0007047F0B50C461546002200210026078CEB
:101100004FF6EF7C07EA0C070784028B018C4FF641
:10111000FF7707EA041640F6FF473A404FF6FF779D
:1011200007EA03373A434FF6FF7707EA05273A43C2
:101130008F4FB8420ED08F4FB8420BD0B0F1804FD6
:1011400008D08D4FB84205D08C4FB84202D08C4F9A
:10115000B84206D14FF6DF77394046F010073943E1
:1011600005E04FF65F77394044F0100739430283BA
:101170000184F0BD028B4FF6F3731A400283028B99
:101180000A4302837047F0B50C4615460022002141
:10119000068C4FF6FE773E400684028B018C4FF69C
:1011A0000C7632407E1C06EA03162E433243704E04
:1011B000B0420ED06F4EB0420BD0B0F1804F08D08D
:1011C0006D4EB04205D06D4EB04202D06C4EB04272
:1011D00006D14FF6FD76314044F00106314305E07B
:1011E0004FF6F576314044F0010631430283018425
:1011F000F0BD70B505460C465D4885420ED05D4891
:1012000085420BD0B5F1804F08D05B48854205D0B0
:101210005A48854202D05A48854200D100E000BFBA
:10122000208850B92389A28861882846FFF7ABFF40
:10123000E1882846FFF79EFF25E0208804280AD190
:101240002389A28861882846FFF753FFE188284652
:10125000FFF742FF17E0208808280AD12389A288D7
:1012600061882846FFF7FBFEE1882846FFF7EEFE7F
:1012700009E02389A28861882846FFF7A6FEE18855
:101280002846FFF795FE70BD2DE9F04105460C4656
:1012900000260127608808B9022600E00026A08801
:1012A000012801D1022700E001272088A0B9238965
:1012B000A28861882846FFF766FFE1882846FFF785
:1012C00059FF23893A4631462846FFF712FFE18845
:1012D0002846FFF701FF13E02389A288618828468A
:1012E000FFF707FFE1882846FFF7F6FE23893A4615
:1012F00031462846FFF747FFE1882846FFF73AFFC7
:10130000BDE8F0810A884B881A438B881A43CB8842
:101310001A430B891A434B891A438B891A43A0F845
:10132000442070474FF6FF71818000210180C18009
:101330004180017270470021018041808180C1801D
:10134000018141818181C1817047002101804180FB
:10135000012181800021C18001817047002101802D
:1013600041808180C180018141818181704700007D
:10137000002C0140003401400004004000080040FF
:10138000000C004021B1028842F00102028004E01A
:1013900002884FF6FE731A400280704731B1B0F8F0
:1013A000442042F40042A0F8442005E0B0F8442074
:1013B000C2F30E02A0F8442070471AB183890B4390
:1013C000838102E083898B438381704781827047E8
:1013D00041EA0203A0F8483070471AB183890B43F1
:1013E000838102E083898B438381704701894FF6B3
:1013F000F8721140018170470A46002101894FF6B9
:101400008F73194011430181704730B504460D4672
:1014100029462046FFF7F0FF208940F00700208191
:1014200030BD2DE9F04104460D4616461F46602D9D
:1014300006D13B46012231462046FFF75AFE05E021
:101440003B46012231462046FFF79DFE29462046B5
:10145000FFF7D2FF208940F007002081BDE8F0812E
:1014600030B50C4600210189C9B24FF6FF7505EA77
:101470000325154325432943018130BD2DE9F04162
:1014800005460E4617469846002443463A463146DE
:101490002846FFF7E5FF2C894FF6F870044044F02A
:1014A00007044FF68F70044044F070042C81BDE8AF
:1014B000F081F0B504460D4616461F463B463246BF
:1014C00029462046FFF7CCFF208940F48040208148
:1014D000F0BD0185828270470A46002101884FF6DF
:1014E0008F731940114301807047F0B50C461546C3
:1014F0001E460021002200230189028B038C4FF637
:10150000F877394021434FF6FC473A4040F2011743
:101510003A434FF6DD773B404FF6FF7707EA061771
:101520002F433B43018102830384F0BD0A4600211F
:10153000018B4FF68F7319401143018370470A46A0
:101540000021018B48F6FF7319404FF6FF7303EA41
:1015500002231943018370470A460021818B4FF60D
:101560008F7319401143818370470A460021818B94
:1015700048F6FF7319404FF6FF7303EA022319433D
:101580008183704721B1028842F08002028004E02A
:1015900002884FF67F731A400280704721B182881B
:1015A00042F00402828004E082884FF6FB731A4006
:1015B0008280704721B1828842F00802828004E074
:1015C00082884FF6F7731A408280704721B1828873
:1015D00042F00102828004E082884FF6FE731A40D6
:1015E000828070470A460021018B4FF6F77319403D
:1015F0001143018370470A460021018B4FF2FF73AC
:1016000019404FF6FF7303EA022319430183704721
:101610000A460021818B4FF6F773194011438183ED
:1016200070470A460021818B4FF2FF7319404FF635
:10163000FF7303EA02231943818370470A4600219E
:10164000018B4FF6FB7319401143018370470A4623
:101650000021018B4FF6FF3319404FF6FF7303EA69
:1016600002231943018370470A460021818B4FF6FC
:10167000FB7319401143818370470A460021818B17
:101680004FF6FF3319404FF6FF7303EA0223194365
:10169000818370470A460021018B4FF67F73194002
:1016A0001143018370470A460021018BC1F30E01EB
:1016B0004FF6FF7303EA02231943018370470A467A
:1016C0000021818B4FF67F7319401143818370474E
:1016D0000A460021818BC1F30E014FF6FF7303EA26
:1016E00002231943818370470A460021018C4FF67B
:1016F000FD7319401143018470470A460021018C93
:101700004FF6F77319401143018470470A460021D0
:10171000018C4FF6DF7319404FF6FF7303EA021393
:101720001943018470470A460021018C4FF67F73EC
:1017300019404FF6FF7303EA0213194301847047FF
:101740000A460021018C4FF6FF5319404FF6FF73F4
:1017500003EA02231943018470470A460021018CE1
:101760004FF2FF7319404FF6FF7303EA0223194348
:10177000018470470A460021018C4DF6FF73194021
:101780004FF6FF7303EA023319430184704730B503
:10179000002301248C40A3B2048C9C430484048C59
:1017A00002FA01F5ADB22C43048430BD30B50023FC
:1017B00004248C40A3B2048C9C430484048C02FA5D
:1017C00001F5ADB22C43048430BD70B50346002052
:1017D00000241846183001258D40ACB21D8CA5435D
:1017E0001D8409B1082909D100EB6100056825F0C5
:1017F000700505600568154305600EE00D1FC5F313
:101800004E052844056825F4E045056005684FF657
:10181000FF7606EA02263543056070BD21B10288D5
:1018200042F00202028004E002884FF6FD731A4083
:101830000280704721B1028842F00402028004E075
:1018400002884FF6FB731A400280704721B18288EC
:1018500042F08002828004E082884FF67F731A4053
:101860008280704702884FF6F7731A400280028820
:101870000A430280704782884FF68F731A40828035
:1018800082880A438280704702894FF6F8731A40B3
:10189000028102890A430281704702894FF67F73F1
:1018A0001A40028102890A4302817047818470478D
:1018B00081857047818670470187704781877047AF
:1018C000A0F84010704702884FF6FF431A4002808C
:1018D00002880A43028070470146888E704701469D
:1018E000088F70470146888F70470146B1F8400065
:1018F00070470146888C70470146088D7047024644
:101900000020138A0B400BB1012000E0002070473B
:10191000CA430282704730B50246002000230024EB
:10192000158A05EA0103958905EA010413B10CB192
:10193000012000E0002030BDCA4302827047000051
:101940001CB5184918484FF47A72CDE900100121EE
:10195000022000F05EF923E00024254611E040F665
:10196000B83000F079FF22462B460121022000F01A
:101970000FFE00220D4B2046294600F0A3FF04462F
:101980000D4600220A4B2046294601F0EFF8E6D327
:101990000022084B2046294601F0E8F800D100BF9C
:1019A000DAE700009A9999999999C93F0000F03FA8
:1019B00000004E4000004D40704700BFFEE700BFF2
:1019C000FEE700BFFEE700BFFEE7704770477047C5
:1019D0007047704710B5044614B1012C18D10BE0C4
:1019E000FE49002208680121FFF7E7FCFB4908686F
:1019F0000021FFF7C7FC0BE0F849012208681146F7
:101A0000FFF7DBFCF54908680121FFF7BBFC00BFCD
:101A100000BF10BDFEB506460C461546062E02D088
:101A2000072E32D118E001211020FFF724F8ADF87D
:101A30000440ADF800506946E948FFF747F9012135
:101A4000E748FFF765FF0020FFF7C4FFE448E349DC
:101A500008603620087118E001212020FFF70BF8FC
:101A6000ADF80440ADF800506946DE48FFF72EF9A6
:101A70000121DC48FFF74CFF0020FFF7ABFFD948FE
:101A8000D64908603720087100BF00BFFEBD0020A6
:101A9000704738B504464FF4E060FEF755FC022C61
:101AA00002D11C208DF80000032C02D11D208DF8DE
:101AB0000000042C02D11E208DF80000052C02D15C
:101AC00032208DF80000062C02D136208DF800005F
:101AD000072C02D137208DF8000000208DF801007E
:101AE00003208DF8020001208DF803006846FEF700
:101AF00030FC38BDFEB506460C4615461F46012F84
:101B000002D0022F08D103E00020ADF8020003E06C
:101B10001020ADF8020000BF00BF022E06D0032E39
:101B200021D0042E3AD0052E6ED152E00121084674
:101B3000FEF7A1FFADF80440ADF800500020ADF86D
:101B400006008DF8080001218807FFF7E1FE4FF03D
:101B50008040A24908601C20087169464FF080400F
:101B6000FFF7B4F850E001210220FEF784FFADF842
:101B70000440ADF800500020ADF806008DF80800D4
:101B800001219948FFF7C4FE9748944908601D2039
:101B9000087169469448FFF799F835E0012104205F
:101BA000FEF769FFADF80440ADF800500020ADF835
:101BB00006008DF8080001218C48FFF7A9FE8B482C
:101BC000864908601E20087169468848FFF77EF83C
:101BD0001AE001210820FEF74EFFADF80440ADF8F1
:101BE00000500020ADF806008DF8080001217F4864
:101BF000FFF78EFE7E4879490860322008716946F9
:101C00007B48FFF763F800BF00BF0020FFF7E2FE4C
:101C1000FEBD2DE9F04F8DB081460D469246DDE9BF
:101C200016783846414600F0B9FF724908604FF017
:101C3000480B0AFB0BF07049B1FBF0F084B2601C5A
:101C400086B2304600F057FF3A464346CDE90001E0
:101C500000F0DFFECDE9020100F0A0FF0490B9F131
:101C6000000F09D0B9F1010F7DD0B9F1020F7BD07F
:101C7000B9F1030F79D16AE360480680012D06D0DF
:101C8000022D48D0032D71D0042D43D1E7E001216E
:101C90000420FEF7E3FE4FF40040ADF830001820BA
:101CA0008DF8330003208DF832000CA95448FEF75C
:101CB00019FC01210846FEF7DEFEADF8284047205A
:101CC000ADF824000020ADF82A00ADF826008DF80C
:101CD0002C0009A94FF08040FEF7F8FF6020ADF816
:101CE00014000120ADF816000020ADF81C00049887
:101CF00000F00EFF80B2ADF81A0005A94FF0804049
:101D0000FFF721F80821C806FFF76CFC01218807BE
:101D1000FFF738FBE7E001210820FEF79FFE0820CF
:101D2000ADF8300018208DF8330003208DF8320014
:101D30000CA93448FEF7D6FB01210846FEF79BFEAE
:101D4000ADF828404720ADF824000020ADF82A0067
:101D5000ADF826008DF82C0009A94FF08040FEF761
:101D6000B5FF602003E0C0E0D2E1EFE21BE0ADF898
:101D700014000120ADF816000020ADF81C000498F6
:101D800000F0C6FE80B2ADF81A0005A94FF0804001
:101D9000FFF71BF80821C806FFF72DFC0121880773
:101DA000FFF7F0FA9FE001210820FEF757FE4FF4FD
:101DB0008060ADF8300018208DF8330003208DF8D6
:101DC00032000CA90F48FEF78DFB01210846FEF7F3
:101DD00052FEADF82840472016E000002C000020FD
:101DE00000100040001400400004004000080040C3
:101DF000000C00402800002000A24A04340000200B
:101E000000080140000C0140ADF824000020ADF8AE
:101E10002A00ADF826008DF82C0009A94FF080406B
:101E2000FEF754FF6020ADF814000120ADF8160055
:101E30000020ADF81C00049800F06AFE80B2ADF8F6
:101E40001A0005A94FF08040FFF70CF80821C806DA
:101E5000FFF7DEFB01218807FFF794FA43E0012139
:101E60000820FEF7FBFD4FF40060ADF830001820AD
:101E70008DF8330003208DF832000CA9FE48FEF7E0
:101E800031FB01210846FEF7F6FDADF8284047205A
:101E9000ADF824000020ADF82A00ADF826008DF83A
:101EA0002C0009A94FF08040FEF710FF6020ADF82C
:101EB00014000120ADF816000020ADF81C000498B5
:101EC00000F026FE80B2ADF81A0005A94FF0804060
:101ED000FFF713F80821C806FFF7A3FB01218807C5
:101EE000FFF750FA00BF00BF46E3E4484680012DEB
:101EF00006D0022D45D0032D7ED0042D40D1C4E064
:101F000001210420FEF7AAFD0120ADF830001820C1
:101F10008DF8330003208DF832000CA9D848FEF765
:101F2000E1FA01210820FEF7A6FDADF82840472080
:101F3000ADF824000020ADF82A00ADF826008DF899
:101F40002C0009A9CF48FEF7C1FE6020ADF81400AF
:101F50000120ADF816000020ADF81C00049800F038
:101F6000D7FD80B2ADF81A0005A9C648FEF7EBFE12
:101F70000821C448FFF736FB0121C248FFF702FAE7
:101F8000C4E001210420FEF769FD0220ADF8300015
:101F900018208DF8330003208DF832000CA9B848C2
:101FA000FEF7A0FA01210820FEF765FDADF82840F4
:101FB0004720ADF824000020ADF82A00ADF8260037
:101FC0008DF82C0009A9AF48FEF780FE6020ADF81F
:101FD00014000120ADF816000020ADF81C00049894
:101FE00000F096FD80B2ADF81A0005A9A548FEF7ED
:101FF000ECFE0821A34800E006E0FFF7FCFA01210F
:10200000A048FFF7BFF981E001210420FEF726FD7B
:102010000420ADF8300018208DF8330003208DF82F
:1020200032000CA99648FEF75DFA01210820FEF760
:1020300022FDADF828404720ADF824000020ADF87F
:102040002A00ADF826008DF82C0009A98D48FEF76E
:102050003DFE6020ADF814000120ADF81600002010
:10206000ADF81C00049800F053FD80B2ADF81A00E2
:1020700005A98448FEF7F6FE08218248FFF7C8FA52
:1020800001218048FFF77EF940E001210420FEF79E
:10209000E5FC0820ADF8300018208DF8330003204F
:1020A0008DF832000CA97648FEF71CFA01210820B1
:1020B000FEF7E1FCADF828404720ADF824000020F1
:1020C000ADF82A00ADF826008DF82C0009A96D485E
:1020D000FEF7FCFD6020ADF814000120ADF81600FD
:1020E0000020ADF81C00049800F012FD80B2ADF89D
:1020F0001A0005A96348FEF700FF08216148FFF7B1
:1021000090FA01215F48FFF73DF900BF00BF33E2BD
:102110005A488680012D06D0022D45D0032D7DD052
:10212000042D40D1D0E001210420FEF797FC40208F
:10213000ADF8300018208DF8330003208DF8320000
:102140000CA94F48FEF7CEF901210220FEF793FCBF
:10215000ADF828404720ADF824000020ADF82A0053
:10216000ADF826008DF82C0009A94748FEF7AEFD12
:102170006020ADF814000120ADF816000020ADF885
:102180001C00049800F0C4FC80B2ADF81A0005A948
:102190003D48FEF7D8FD08213B48FFF723FA01210F
:1021A0003948FFF7EFF8D0E001210420FEF756FC94
:1021B0008020ADF8300018208DF8330003208DF812
:1021C00032000CA92E48FEF78DF901210220FEF7FE
:1021D00052FCADF828404720ADF824000020ADF8AF
:1021E0002A00ADF826008DF82C0009A92648FEF734
:1021F0006DFD6020ADF814000120ADF81600002040
:10220000ADF81C00049800F083FC80B2ADF81A0011
:1022100005A91D48FEF7D9FD082100E007E01A488E
:10222000FFF7E9F901211848FFF7ACF88DE001212B
:102230000820FEF713FC0120ADF8300018208DF8BF
:10224000330003208DF832000CA90B48FEF74AF941
:1022500001210220FEF70FFCADF828404720ADF821
:1022600024000020ADF82A00ADF826008DF82C00DF
:1022700009A905480AE00000000C014034000020D4
:1022800000080140000C004000040040FEF71EFD65
:102290006020ADF814000120ADF816000020ADF864
:1022A0001C00049800F034FC80B2ADF81A0005A9B7
:1022B000FD48FEF7D7FD0821FB48FFF7A9F90121EA
:1022C000F948FFF75FF840E001210820FEF7C6FB60
:1022D0000220ADF8300018208DF8330003208DF86F
:1022E00032000CA9F148FEF7FDF801210220FEF7AB
:1022F000C2FBADF828404720ADF824000020ADF81F
:102300002A00ADF826008DF82C0009A9E648FEF752
:10231000DDFC6020ADF814000120ADF816000020AF
:10232000ADF81C00049800F0F3FB80B2ADF81A0081
:1023300005A9DD48FEF7E1FD0821DB48FFF771F94B
:102340000121D948FFF71EF800BF00BF14E1D848AB
:10235000C680012D06D0022D45D0032D7ED0042D40
:1023600040D1C5E001210820FEF778FB4020ADF800
:10237000300018208DF8330003208DF832000CA9AE
:10238000CA48FEF7AFF801210420FEF774FBADF850
:1023900028404720ADF824000020ADF82A00ADF811
:1023A00026008DF82C0009A9C248FEF78FFC60209A
:1023B000ADF814000120ADF816000020ADF81C00A7
:1023C000049800F0A5FB80B2ADF81A0005A9B94841
:1023D000FEF7B9FC0821B748FFF704F90121B54819
:1023E000FEF7D0FFC6E001210820FEF737FB802072
:1023F000ADF8300018208DF8330003208DF832003E
:102400000CA9AA48FEF76EF801210420FEF733FB61
:10241000ADF828404720ADF824000020ADF82A0090
:10242000ADF826008DF82C0009A9A248FEF74EFC55
:102430006020ADF814000120ADF816000020ADF8C2
:102440001C00049800F064FB80B2ADF81A0005A9E6
:102450009848FEF7BAFC0821964800E006E0FFF72E
:10246000CAF801219348FEF78DFF83E0012108207F
:10247000FEF7F4FA4FF48070ADF8300018208DF8B4
:10248000330003208DF832000CA98848FEF72AF8A3
:1024900001210420FEF7EFFAADF828404720ADF8FF
:1024A00024000020ADF82A00ADF826008DF82C009D
:1024B00009A98048FEF70AFC6020ADF8140001204D
:1024C000ADF816000020ADF81C00049800F020FBC9
:1024D00080B2ADF81A0005A97648FEF7C3FC0821C2
:1024E0007448FFF795F801217248FEF74BFF41E071
:1024F00001210820FEF7B2FA4FF40070ADF8300069
:1025000018208DF8330003208DF832000CA967489D
:10251000FDF7E8FF01210420FEF7ADFAADF82840F1
:102520004720ADF824000020ADF82A00ADF82600C1
:102530008DF82C0009A95F48FEF7C8FB6020ADF8B4
:1025400014000120ADF816000020ADF81C0004981E
:1025500000F0DEFA80B2ADF81A0005A95548FEF782
:10256000CCFC08215348FFF75CF801215148FEF7E5
:1025700009FF00BF00BF00BF00BF0DB0BDE8F08F76
:1025800070B504460D4629462046FEF7FBFE70BD99
:102590002DE9FC4782460C4615461E46BAF1000F4F
:1025A00009D0BAF1010F38D0BAF1020F63D0BAF1F5
:1025B000030F31D198E03E49088800F09CFA0746A5
:1025C0002A46334600F025FACDE9000100F0B4FABE
:1025D0001FFA80F9012C06D0022C0AD0032C0ED051
:1025E000042C18D111E049464FF08040FFF762F902
:1025F00011E049464FF08040FFF75EF90BE0494695
:102600004FF08040FFF75AF905E049464FF080400F
:10261000FFF756F900BF00BF94E02549488800F055
:102620006AFA2A463346CDE9000100F0F2F907467E
:1026300000F082FA1FFA80F9012C06D0022C09D092
:10264000032C0CD0042C14D10EE049461A48FFF795
:1026500031F90EE049461848FFF72EF909E04946DE
:102660001548FFF72BF904E049461348FFF728F90E
:1026700000BF00BF66E00E49888800F03CFA0746BC
:102680002A46334600F0C5F9CDE9000100F054FABE
:102690001FFA80F9012C11D0022C14D0032C17D072
:1026A000042C1FD119E0000000040040000C014080
:1026B0003400002000080040000C00404946234838
:1026C000FFF7F8F80EE049462048FFF7F5F809E073
:1026D00049461E48FFF7F2F804E049461B48FFF759
:1026E000EFF800BF00BF2DE01949C88800F003FAD9
:1026F00007462A46334600F08CF9CDE9000100F088
:102700001BFA1FFA80F9012C06D0022C09D0032CE9
:102710000CD0042C14D10EE049460E48FFF7CAF83D
:102720000EE049460B48FFF7C7F809E0494609485B
:10273000FFF7C4F804E049460648FFF7C1F800BFB8
:1027400000BF00BF00BFBDE8FC87000000040040E0
:10275000340000200008004030B50146B1F1807F10
:1027600001D3012030BD21F07F40401E4FF0E02218
:10277000506150170F22002807DA13071D0E4B4B2C
:1027800000F00F04241F1D5503E013071C0E484BD7
:102790001C5400BF00204FF0E02290610720106120
:1027A0000020DFE7014629B101290CD14FF0E022DA
:1027B000106108E04FF0E020006920F001004FF0C8
:1027C000E022106100BF00BF0020704770B50446D2
:1027D000384800683849B0FBF1F000FB04F52846A2
:1027E000FFF7BAFF0020FFF7DDFF002070BD0020DB
:1027F000704701464FF0E02081610020704710B51E
:102800002C4800682C49B0FBF1F42046FFF7A4FFE8
:1028100008B100BFFEE710BD31B526480068274962
:10282000B0FBF1F52846FFF797FF002408E000BF52
:102830004FF0E020006900F480300028F8D0641CDC
:1028400000988442F3D34FF0E020006920F00100AB
:102850004FF0E021086138BD31B5164800684FF4EB
:102860007A71B0FBF1F52846FFF776FF002408E007
:1028700000BF4FF0E020006900F480300028F8D05D
:10288000641C00988442F3D34FF0E020006920F0EC
:1028900001004FF0E021086138BD0948006820B10F
:1028A00007480068401E06490860704718ED00E0C0
:1028B00000E400E000000020A086010040420F007C
:1028C000400000202DE9FE4F804681EA0300C00F42
:1028D0000C46009021F0004123F00045B8EB0200C7
:1028E000A94105D24046214690461C460B46024669
:1028F00023F00040104347D0270DC7F30A00C3F36D
:102900000A510290401A019040286BDAC3F3130079
:1029100040F4801B0098924620B10023D2EB030ABA
:1029200063EB0B0B01985946C0F14002504600F092
:1029300051F906460D4650465946019A00F069F98C
:1029400010EB08006141002487EA115284EAE77322
:102950001A4340D0009A62B3019A012A4FEA075203
:1029600015DC001B61EB02014FF0004202EA075246
:10297000CDE90042001C41F5801132462B4600F0A3
:10298000A0F903B0BDE8F08F40462146F9E7001BEF
:1029900061EB0201001C41F5801300185B41201817
:1029A000A2F5001747EB030140EAD570B6196D4157
:1029B00011E06D084FEA360645EAC0754FEA075246
:1029C000001B61EB0201001C41F5801149084FEA30
:1029D00030000019514132462B4603B0BDE8F04F9C
:1029E00000F060B90098012240000023D0EB020201
:1029F00063EBE073009821464FEAE074B8EB000007
:102A000061EB0401E9E783F000435BE781F00041FB
:102A100058E72DE9FE4F81EA030404F0004421F059
:102A2000004100944FF0000B23F0004350EA0104F2
:102A30005ED052EA03045BD0C3F30A54C1F30A55D3
:102A40002C44A4F2F3340194A0FB0254C1F313010B
:102A500041F48011C3F3130343F4801301FB0244D8
:102A600000FB034E840A970A44EA815447EA8357DD
:102A7000A4FB076802958D0A05FB07854FEA932C96
:102A800004FB0C542705029D4FEA065847EA163707
:102A9000B5EB08056EEB070C870E920E47EA81171F
:102AA00042EA8312A7FB0201B6EB0B0164EB0004C0
:102AB0002B0D43EA0C335E1844EB1C50DA465146AA
:102AC000E7FB0201C5F313044FEA0B3343EA145347
:102AD0004FEA0432019C43EA0603A4F10C04029479
:102AE000009CCDE900B400F0ECF803B0BDE8F08F35
:102AF00000200146F9E70EB540F233410291002172
:102B0000CDE900110A460B4600F0DBF803B000BD2A
:102B100020F00040C10DC0F3160040F400007F29F2
:102B200001DA00207047962903DCC1F19601C84004
:102B30007047963988407047C1F30A5210B5C1F307
:102B4000130140F2FF3341F480119A4201DA002070
:102B500010BD40F233439A42A2F2334203DC5242A8
:102B600000F047F810BD904010BD000030B5041EC5
:102B700071F1000404DB4FF00044404264EB0101BA
:102B8000141E73F1000405DB1C464FF00043524253
:102B900063EB04038B4208BF824230BD01F0004367
:102BA00030B421F0004150EA010206D00A0DA2F52E
:102BB0006072C1F31301002A02DC30BC00207047B0
:102BC000440F44EAC104C100E01830BC00EBC2501D
:102BD00000F031B8202A04DB203A00FA02F100208C
:102BE00070479140C2F1200320FA03F3194390404B
:102BF0007047202A04DB203A21FA02F000217047B6
:102C000021FA02F3D040C2F1200291400843194654
:102C10007047202A06DBCB17203A41FA02F043EA3C
:102C2000E07306E041FA02F3D040C2F12002914085
:102C30000843194670470029A8BF7047401C490047
:102C400008BF20F00100704710B4B0FA80FC00FA11
:102C50000CF050EA010404BF10BC704749B1CCF13C
:102C6000200421FA04F411FA0CF118BF01212143C8
:102C70000843A3EB0C01CB1D4FEA00614FEA102083
:102C800042BF002010BC704700EBC3501044002925
:102C9000A4BF10BC7047401C490008BF20F00100D1
:102CA00010BC704710B5141E73F1000408DA401C04
:102CB00041F1000192185B411A4301D120F001005B
:102CC00010BD2DE9F04D92469B4611B1B1FA81F24B
:102CD00002E0B0FA80F220329046FFF77BFF044614
:102CE0000F4640EA0A0041EA0B0153465A460843A0
:102CF00013D0114653EA010019D0C8F140025046E2
:102D0000FFF777FF05460E46504659464246FFF705
:102D100061FF084305D0012004E020463946BDE8A4
:102D2000F08D0020054346EAE0762C4337430A98AD
:102D30006305E40AA0EB08000022FD0A44EA4754B8
:102D40000A3002D500200146E9E701051019694162
:102D5000DDE9084500196941BDE8F04DA2E7000032
:102D6000064C074D06E0E06840F0010394E80700D8
:102D700098471034AC42F6D3FDF7DEF9A42D0008D5
:102D8000C42D000802E008C8121F08C1002AFAD1A9
:102D900070477047002001E001C1121F002AFBD1DB
:102DA00070470000C42D000800000020440000000F
:102DB000842D0008082E00084400002004040000B0
:102DC000942D000800A24A0400000000000000004A
:102DD00001020304060708090000000001020304C1
:102DE00001020304060708090204060800000000A7
:102DF00000000000000000000000000000000000D3
:082E00000000000000000000CA
:0400000508000131BD
:00000001FF
