:020000040800F2
:100000002004002045010008DB040008D304000898
:10001000D70400088D01000819070008000000003F
:1000200000000000000000000000000001050008C2
:10003000EF01000800000000DD0400084106000890
:100040005F0100085F0100085F0100085F01000810
:100050005F0100085F0100085F0100085F01000800
:100060005F0100085F0100085F0100085F010008F0
:100070005F0100085F0100085F0100085F010008E0
:100080005F0100085F0100085F0100085F010008D0
:100090005F0100085F0100085F0100085F010008C0
:1000A0005F0100085F0100085F0100085F010008B0
:1000B0005F0100085F0100085F0100085F010008A0
:1000C0005F0100085F0100085F0100085F01000890
:1000D0005F0100085F0100085F0100085F01000880
:1000E0005F0100085F0100085F0100085F01000870
:1000F0005F0100085F0100085F0100085F01000860
:100100005F0100085F0100085F0100085F0100084F
:100110005F0100085F0100085F0100085F0100083F
:100120005F0100085F0100085F0100085F0100082F
:10013000DFF80CD000F018F8004800473D07000831
:10014000200400200648804706480047FEE7FEE7F7
:10015000FEE7FEE7FEE7FEE7FEE7FEE7FEE7FEE777
:100160004D06000831010008064C074D06E0E06826
:1001700040F0010394E8070098471034AC42F6D3EE
:10018000FFF7DAFF88070008A807000800BFFEE7AE
:1001900010B50446082C28D2DFE804F02704090E25
:1001A00013181D220121042000F09AF91DE00121FD
:1001B000082000F095F918E00121102000F090F9D6
:1001C00013E00121202000F08BF90EE001214020F6
:1001D00000F086F909E00121802000F081F904E0B7
:1001E0000121080200F07CF900BF00BF10BD70477C
:1001F000F8B507460C4616461D46102C71D2DFE8AE
:1002000004F06A080E141A20262C323940474E5545
:100210005C630220ADF800005F49488061E0042083
:10022000ADF800005C4948805BE00820ADF80000B4
:100230005949488055E01020ADF8000056494880E3
:100240004FE02020ADF800005349488049E04020AD
:10025000ADF800005049488043E08020ADF8000030
:100260004D4948803DE04FF48070ADF800004A49A8
:10027000488036E04FF40070ADF8000046494880F1
:100280002FE04FF48060ADF800004349488028E03B
:100290004FF40060ADF800003F49488021E04FF482
:1002A0008050ADF800003C4948801AE04FF40050FF
:1002B000ADF800003849488013E04FF48040ADF8B5
:1002C0000000354948800CE04FF40040ADF80000D4
:1002D0003149488005E00120ADF800002E494880F2
:1002E00000BF00BF022E0AD00A2E02D0322E12D139
:1002F0000BE001208DF80200274908710BE0022075
:100300008DF802002449087105E003208DF80200F1
:100310002149087100BF00BF092D36D2DFE805F082
:1003200035050B11171D23292F0000208DF8030020
:100330001949487129E004208DF8030016494871D5
:1003400023E014208DF80300134948711DE0482074
:100350008DF803001049487117E014208DF8030050
:100360000D49487111E010208DF803000A494871C9
:100370000BE01C208DF803000749487105E01820A8
:100380008DF803000449487100BF00BF6946384634
:1003900000F004F80020F8BD140000202DE9F04121
:1003A000024600250026002000230024002791F8A3
:1003B00003C00CF00F0591F803C00CF0100CBCF159
:1003C000000F03D091F802C04CEA050591F800C077
:1003D000BCF1000F31D0146800202BE04FF0010C6D
:1003E0000CFA00F3B1F800C00CEA03069E4220D1DB
:1003F00083004FF00F0C0CFA03F7BC4305FA03FC23
:100400004CEA040491F803C0BCF1280F06D14FF068
:10041000010C0CFA00FCC2F814C00AE091F803C009
:10042000BCF1480F05D14FF0010C0CFA00FCC2F8EA
:1004300010C0401C0828D1D31460B1F800C0BCF132
:10044000FF0F34DD546800202EE000F1080C4FF05F
:10045000010808FA0CF3B1F800C00CEA03069E424A
:1004600021D183004FF00F0C0CFA03F7BC4305FABF
:1004700003FC4CEA040491F803C0BCF1280F05D139
:1004800000F1080C08FA0CF8C2F8148091F803C0C7
:10049000BCF1480F07D100F1080C4FF0010808FA31
:1004A0000CF8C2F81080401C0828CED35460BDE878
:1004B000F08170B504460D46164632462946204660
:1004C00000F002F8002070BD0AB1016100E0416156
:1004D000704700BFFEE700BFFEE7704770470000AF
:1004E00029B1064A92690243044B9A6104E0034A27
:1004F00092698243014B9A617047000000100240EC
:10050000704710B500F002F810BD00000CB50020D7
:10051000019000903348006840F480303149086011
:1005200000BF3048006800F4003000900198401C83
:100530000190009818B90198B0F5A06FF1D1294841
:10054000006800F4003010B10120009001E00020AC
:1005500000900098012843D12348006840F0100023
:10056000214908600846006820F00300086008463A
:10057000006840F0020008601A4840681949486065
:100580000846406848600846406840F4806048601B
:100590000846406820F47C1048600846406840F4F3
:1005A000E81048600846006840F08070086000BFAE
:1005B0000C48006800F000700028F9D00948406835
:1005C00020F00300074948600846406840F00200F8
:1005D000486000BF0348406800F00C000828F9D1CB
:1005E0000CBD0000001002400020024030B5014662
:1005F000B1F1807F01D3012030BD21F07F40401E4A
:100600004FF0E022506150170F22002807DA13073D
:100610001D0E094B00F00F04241F1D5503E01307A6
:100620001C0E064B1C5400BF00204FF0E0229061CE
:10063000072010610020DFE718ED00E000E400E093
:1006400010B500F001F810BD0020704710B5134838
:10065000006840F0010011490860084640681049F0
:1006600008400E494860084600680E4908400B499A
:1006700008600846006820F480200860084640684A
:1006800020F4FE0048604FF41F008860FFF739FF38
:100690004FF000600449086010BD000000100240E7
:1006A0000000FFF8FFFFF6FE08ED00E031B510484E
:1006B00000684FF47A71B0FBF1F52846FFF796FF1A
:1006C000002408E000BF4FF0E020006900F4803013
:1006D0000028F8D0641C00988442F3D34FF0E02047
:1006E000006920F001004FF0E021086138BD0000F2
:1006F0000000002010B5064800680649B0FBF1F480
:100700002046FFF773FF08B100BFFEE710BD0000F1
:1007100000000020A086010000BFFEE702E008C83C
:10072000121F08C1002AFAD170477047002001E06B
:1007300001C1121F002AFBD1704700000220FFF701
:1007400027FD0623322200210E48FFF751FD01222A
:1007500011460C48FFF7ADFEFFF7CCFF11E0002279
:1007600001210848FFF7A5FE4FF47A70FFF79EFFBE
:10077000012211460348FFF79CFE4FF47A70FFF701
:1007800095FFECE7000C0140A807000800000020DE
:100790001C0000001C070008C40700081C00002003
:1007A000040400002C07000800A24A040000000016
:1007B0000000000001020304060708090000000011
:0407C0000000000035
:0400000508000131BD
:00000001FF
