:020000040800F2
:100000000004002045010008BF040008B7040008F0
:10001000BB0400088D010008350600080000000040
:10002000000000000000000000000000E5040008DF
:100030009101000800000000C1040008D10500087B
:100040005F0100085F0100085F0100085F01000810
:100050005F0100085F0100085F0100085F01000800
:100060005F0100085F0100085F0100085F010008F0
:100070005F0100085F0100085F0100085F010008E0
:100080005F0100085F0100085F0100085F010008D0
:100090005F0100085F0100085F0100085F010008C0
:1000A0005F0100085F0100085F0100085F010008B0
:1000B0005F0100085F0100085F0100085F010008A0
:1000C0005F0100085F0100085F0100085F01000890
:1000D0005F0100085F0100085F0100085F01000880
:1000E0005F0100085F0100085F0100085F01000870
:1000F0005F0100085F0100085F0100085F01000860
:100100005F0100085F0100085F0100085F0100084F
:100110005F0100085F0100085F0100085F0100083F
:100120005F0100085F0100085F0100085F0100082F
:10013000DFF80CD000F018F8004800475706000818
:10014000000400200648804706480047FEE7FEE717
:10015000FEE7FEE7FEE7FEE7FEE7FEE7FEE7FEE777
:10016000D505000831010008064C074D06E0E0689F
:1001700040F0010394E8070098471034AC42F6D3EE
:10018000FFF7DAFF6C0600087C06000800BFFEE7F8
:10019000704700002DE9F84304460D4617461E46F9
:1001A000DDF82080102D51D2DFE805F04C080C104E
:1001B00014181C2024292E33383D42470220ADF864
:1001C000000043E00420ADF800003FE00820ADF857
:1001D00000003BE01020ADF8000037E02020ADF833
:1001E000000033E04020ADF800002FE08020ADF8A3
:1001F00000002BE04FF48070ADF8000026E04FF4D3
:100200000070ADF8000021E04FF48060ADF8000010
:100210001CE04FF40060ADF8000017E04FF4805090
:10022000ADF8000012E04FF40050ADF800000DE012
:100230004FF48040ADF8000008E04FF40040ADF806
:10024000000003E00120ADF8000000BF00BF022F56
:1002500008D00A2F02D0322F0CD107E001208DF8F0
:10026000020007E002208DF8020003E003208DF871
:10027000020000BF00BF092E26D2DFE806F02505E8
:10028000090D1115191D210000208DF803001BE038
:1002900004208DF8030017E014208DF8030013E00C
:1002A00048208DF803000FE014208DF803000BE0C8
:1002B00010208DF8030007E01C208DF8030003E0F8
:1002C00018208DF8030000BF00BFB8F1080F28D236
:1002D000DFE808F02704090E13181D22012104206D
:1002E00000F0F0F81DE00121082000F0EBF818E024
:1002F0000121102000F0E6F813E00121202000F099
:10030000E1F80EE00121402000F0DCF809E00121D5
:10031000802000F0D7F804E00121080200F0D2F8B4
:1003200000BF00BF082C28D2DFE804F02704090E24
:1003300013181D226946134800F032F81DE0694683
:10034000114800F02DF818E06946104800F028F830
:1003500013E069460E4800F023F80EE069460D48A8
:1003600000F01EF809E069460B4800F019F804E0B7
:1003700069460A4800F014F800BF00BF0020BDE83D
:10038000F883000000080140000C0140001001400B
:100390000014014000180140001C014000200140F1
:1003A0002DE9F0410246002500260020002300240C
:1003B000002791F803C00CF00F0591F803C00CF072
:1003C000100CBCF1000F03D091F802C04CEA0505F7
:1003D00091F800C0BCF1000F31D0146800202BE070
:1003E0004FF0010C0CFA00F3B1F800C00CEA030660
:1003F0009E4220D183004FF00F0C0CFA03F7BC4350
:1004000005FA03FC4CEA040491F803C0BCF1280F80
:1004100006D14FF0010C0CFA00FCC2F814C00AE03F
:1004200091F803C0BCF1480F05D14FF0010C0CFA54
:1004300000FCC2F810C0401C0828D1D31460B1F8E9
:1004400000C0BCF1FF0F34DD546800202EE000F145
:10045000080C4FF0010808FA0CF3B1F800C00CEAE0
:1004600003069E4221D183004FF00F0C0CFA03F7D4
:10047000BC4305FA03FC4CEA040491F803C0BCF148
:10048000280F05D100F1080C08FA0CF8C2F8148006
:1004900091F803C0BCF1480F07D100F1080C4FF0F0
:1004A000010808FA0CF8C2F81080401C0828CED3C6
:1004B0005460BDE8F08100BFFEE700BFFEE7704773
:1004C0007047000029B1064A92690243044B9A61C1
:1004D00004E0034A92698243014B9A61704700002D
:1004E00000100240704710B500F002F810BD000087
:1004F0000CB50020019000903348006840F4803033
:100500003149086000BF3048006800F400300090B6
:100510000198401C0190009818B90198B0F5A06F9F
:10052000F1D12948006800F4003010B1012000909A
:1005300001E0002000900098012843D12348006882
:1005400040F01000214908600846006820F00300D0
:1005500008600846006840F0020008601A484068D9
:10056000194948600846406848600846406840F4B9
:10057000806048600846406820F47C104860084667
:10058000406840F4E81048600846006840F0807019
:10059000086000BF0C48006800F000700028F9D027
:1005A0000948406820F00300074948600846406851
:1005B00040F00200486000BF0348406800F00C00B3
:1005C0000828F9D10CBD00000010024000200240B4
:1005D0007047000010B51348006840F00100114951
:1005E000086008464068104908400E4948600846BF
:1005F00000680E4908400B4908600846006820F46E
:10060000802008600846406820F4FE0048604FF4EF
:100610001F008860FFF767FF4FF000600449086023
:1006200010BD0000001002400000FFF8FFFFF6FEC2
:1006300008ED00E000BFFEE702E008C8121F08C195
:10064000002AFAD170477047002001E001C1121F53
:10065000002AFBD1704708B5012003460246014637
:100660000090FFF797FD002008BD00007C06000801
:0C06700000000020000400004806000804
:0400000508000131BD
:00000001FF
