:020000040800F2
:1000000018040020450100081F030008170300081A
:100010001B0300088D010008A5090008000000006E
:1000200000000000000000000000000019040008AB
:10003000F101000800000000210300080505000888
:100040005F0100085F0100085F0100085F01000810
:100050005F0100085F0100085F0100085F01000800
:100060005F0100085F0100085F0100085F010008F0
:100070005F0100085F0100085F0100085F010008E0
:100080005F0100085F0100085F0100085F010008D0
:100090005F0100085F0100085F0100085F010008C0
:1000A0005F0100085F0100085F0100085F010008B0
:1000B0005F0100085F0100085F0100085F010008A0
:1000C0005F0100085F0100085F0100085F01000890
:1000D0005F0100085F0100085F0100085F01000880
:1000E0005F0100085F0100085F0100085F01000870
:1000F0005F0100085F0100085F0100085F01000860
:100100005F0100085F0100085F0100085F0100084F
:100110005F0100085F0100085F0100085F0100083F
:100120005F0100085F0100085F0100085F0100082F
:10013000DFF80CD000F018F800480047C9090008A3
:10014000180400200648804706480047FEE7FEE7FF
:10015000FEE7FEE7FEE7FEE7FEE7FEE7FEE7FEE777
:100160000905000831010008064C074D06E0E0686B
:1001700040F0010394E8070098471034AC42F6D3EE
:10018000FFF7DAFFF0090008100A000800BFFEE7D9
:1001900010B50446082C28D2DFE804F02704090E25
:1001A00013181D220121042000F0BCF81DE00121DC
:1001B000082000F0B7F818E00121102000F0B2F894
:1001C00013E00121202000F0ADF80EE001214020D5
:1001D00000F0A8F809E00121802000F0A3F804E075
:1001E0000121080200F09EF800BF00BF002010BDF2
:1001F0007047000001490860704700001404014086
:100200002DE9F041024600250026002000230024AD
:10021000002791F803C00CF00F0591F803C00CF013
:10022000100CBCF1000F03D091F802C04CEA050598
:1002300091F800C0BCF1000F31D0146800202BE011
:100240004FF0010C0CFA00F3B1F800C00CEA030601
:100250009E4220D183004FF00F0C0CFA03F7BC43F1
:1002600005FA03FC4CEA040491F803C0BCF1280F22
:1002700006D14FF0010C0CFA00FCC2F814C00AE0E1
:1002800091F803C0BCF1480F05D14FF0010C0CFAF6
:1002900000FCC2F810C0401C0828D1D31460B1F88B
:1002A00000C0BCF1FF0F34DD546800202EE000F1E7
:1002B000080C4FF0010808FA0CF3B1F800C00CEA82
:1002C00003069E4221D183004FF00F0C0CFA03F776
:1002D000BC4305FA03FC4CEA040491F803C0BCF1EA
:1002E000280F05D100F1080C08FA0CF8C2F81480A8
:1002F00091F803C0BCF1480F07D100F1080C4FF092
:10030000010808FA0CF8C2F81080401C0828CED367
:100310005460BDE8F08100BFFEE700BFFEE7704714
:100320007047000029B1064AD2680243044BDA60E4
:1003300004E0034AD2688243014BDA607047000050
:100340000010024030B500210022002400232D4D72
:100350006D6805F00C0121B1042905D0082923D1CD
:1003600005E0294D056022E0274D05601FE0254D81
:100370006D6805F47012234D6D6805F48034022514
:1003800005EB92421CB9214D554305600BE01D4D14
:100390006D6805F400351DB11C4D5543056002E044
:1003A000194D5543056002E0174D056000BF00BFC1
:1003B000144D6D6805F0F0010909154D6B5C056879
:1003C000DD4045600F4D6D6805F4E061090A104D90
:1003D0006B5C4568DD4085600A4D6D6805F46051D1
:1003E000C90A0B4D6B5C4568DD40C560054D6D6805
:1003F00005F44041890B074D6B5CC568B5FBF3F50F
:10040000056130BD0010024000127A0000093D0075
:100410000000002010000020704710B500F002F826
:1004200010BD00000CB5002001900090334800681A
:1004300040F480303149086000BF3048006800F463
:10044000003000900198401C0190009818B9019864
:10045000B0F5A06FF1D12948006800F4003010B168
:100460000120009001E0002000900098012843D175
:100470002348006840F010002149086008460068E1
:1004800020F0030008600846006840F002000860A1
:100490001A4840681949486008464068486008465C
:1004A000406840F4806048600846406820F47C1052
:1004B00048600846406840F4E81048600846006814
:1004C00040F08070086000BF0C48006800F00070C9
:1004D0000028F9D00948406820F003000749486027
:1004E0000846406840F00200486000BF034840688A
:1004F00000F00C000828F9D10CBD000000100240EB
:10050000002002407047000010B51348006840F01A
:1005100001001149086008464068104908400E492A
:100520004860084600680E4908400B4908600846C4
:10053000006820F4802008600846406820F4FE002F
:1005400048604FF41F008860FFF767FF4FF00060BE
:100550000449086010BD0000001002400000FFF8D0
:10056000FFFFF6FE08ED00E02DE9F04186B0804681
:100570000F4615461E460C9CB8F1060F50D2DFE818
:1005800008F04F03509BE8FC4FF40070ADF81400E6
:1005900018208DF8170003208DF8160005A9BC4817
:1005A000FFF72EFE4FF48060ADF8140004208DF8A4
:1005B000170005A9B648FFF723FE0197082D02D1C1
:1005C0000020ADF80800092D03D14FF48050ADF89C
:1005D0000800012E02D10020ADF80A00022E02D13F
:1005E0003003ADF80A00012C03D14FF4C060ADF820
:1005F0000C00022C02D16002ADF80C0014B90020EE
:10060000ADF80C000020ADF810000C20ADF80E0085
:1006100001A9A04800F05AF901219E4800F04AF9CA
:1006200031E10420ADF8140018208DF817000320E4
:100630008DF8160005A99648FFF7E2FD0820ADF8F1
:10064000140004208DF8170005A99148FFF7D8FD84
:100650000197082D02D10020ADF80800092D03D123
:100660004FF48050ADF80800012E02D10020ADF803
:100670000A00022E02D13003ADF80A00012C03D18A
:100680004FF4C060ADF80C00022C02D16002ADF84E
:100690000C0014B90020ADF80C000020ADF81000DB
:1006A0000C20ADF80E0001A97B4800F00FF90121E4
:1006B000794800F0FFF8E6E04FF48060ADF81400F0
:1006C00018208DF8170003208DF8160005A973482F
:1006D000FFF796FD4FF40060ADF8140004208DF88C
:1006E000170005A96D48FFF78BFD0197082D02D172
:1006F0000020ADF80800092D03D14FF48050ADF86B
:100700000800012E02D10020ADF80A00022E02D10D
:100710003003ADF80A00012C03D14FF4C060ADF8EE
:100720000C00022C02D16002ADF80C0014B90020BC
:10073000ADF80C000020ADF810000C20ADF80E0054
:1007400001A9574800F0C2F80121554800F0B2F85D
:1007500099E04FF48060ADF8140018208DF8170070
:1007600003208DF8160005A94E48FFF749FD4FF408
:100770000060ADF81400042000E039E08DF81700A7
:1007800005A94848FFF73CFD0197082D02D100203C
:10079000ADF80800092D03D14FF48050ADF80800E2
:1007A000012E02D10020ADF80A00022E02D1300342
:1007B000ADF80A00012C03D14FF4C060ADF80C0075
:1007C000022C02D16002ADF80C0014B90020ADF883
:1007D0000C000020ADF810000C20ADF80E0001A9AF
:1007E000314800F073F801212F4800F063F84AE027
:1007F0004FF48050ADF8140018208DF81700032036
:100800008DF8160005A92748FFF7FAFC0420ADF87B
:1008100014008DF8170005A92448FFF7F1FC019793
:10082000082D02D10020ADF80800092D03D14FF4A6
:100830008050ADF80800012E02D10020ADF80A006A
:10084000022E02D13003ADF80A00012C03D14FF47F
:10085000C060ADF80C00022C02D16002ADF80C00B3
:1008600014B90020ADF80C000020ADF810000C20E9
:10087000ADF80E0001A90E4800F028F801210C483F
:1008800000F018F800BF00BF002006B0BDE8F081FE
:10089000000801400038014000440040000C0140C5
:1008A0000048004000100140004C0040001401408E
:1008B0000050004021B1828942F40052828104E05C
:1008C00082894DF6FF731A40828170472DE9F04707
:1008D00086B005460E460024A24600BFA14600276A
:1008E000B08900B100BF2F462C8A4CF6FF7004403F
:1008F000F08804432C82AC894EF6F3100440B08893
:1009000031890843718908430443AC81AC8A4FF6AE
:10091000FF400440B0890443AC8201A8FFF712FDF8
:100920001F48874202D1DDF810A001E0DDF80CA0DD
:10093000A88900F4004040B10AEBCA0000EB0A109D
:1009400031684900B0FBF1F807E00AEBCA0000EBA0
:100950000A1031688900B0FBF1F86420B8FBF0F0B0
:1009600004012009642101FB1089A88900F40040DA
:1009700040B1322000EBC900B0FBF1F000F00700FD
:10098000044308E0322000EB09106421B0FBF1F0D1
:1009900000F00F0004432C8106B0BDE8F087000092
:1009A0000038014000BFFEE702E008C8121F08C17E
:1009B000002AFAD170477047002001E001C1121FE0
:1009C000002AFBD17047000008B50020012308224F
:1009D0004FF4E13100900548FFF7C6FD0020FFF716
:1009E000D7FB0620FFF706FC002008BD00380140B9
:1009F000100A00080000002014000000A8090008E8
:100A0000240A00081400002004040000B8090008AB
:100A100000000000010203040102030406070809A4
:040A200002040608BE
:0400000508000131BD
:00000001FF
